{
  "_format": "hh-sol-artifact-1",
  "contractName": "NakTokens",
  "sourceName": "contracts/NakTokens.sol",
  "abi": [
    {
      "inputs": [],
      "stateMutability": "nonpayable",
      "type": "constructor"
    },
    {
      "anonymous": false,
      "inputs": [
        {
          "indexed": true,
          "internalType": "address",
          "name": "owner",
          "type": "address"
        },
        {
          "indexed": true,
          "internalType": "address",
          "name": "approved",
          "type": "address"
        },
        {
          "indexed": true,
          "internalType": "uint256",
          "name": "tokenId",
          "type": "uint256"
        }
      ],
      "name": "Approval",
      "type": "event"
    },
    {
      "anonymous": false,
      "inputs": [
        {
          "indexed": true,
          "internalType": "address",
          "name": "owner",
          "type": "address"
        },
        {
          "indexed": true,
          "internalType": "address",
          "name": "operator",
          "type": "address"
        },
        {
          "indexed": false,
          "internalType": "bool",
          "name": "approved",
          "type": "bool"
        }
      ],
      "name": "ApprovalForAll",
      "type": "event"
    },
    {
      "anonymous": false,
      "inputs": [
        {
          "indexed": true,
          "internalType": "address",
          "name": "from",
          "type": "address"
        },
        {
          "indexed": true,
          "internalType": "address",
          "name": "to",
          "type": "address"
        },
        {
          "indexed": true,
          "internalType": "uint256",
          "name": "tokenId",
          "type": "uint256"
        }
      ],
      "name": "Transfer",
      "type": "event"
    },
    {
      "inputs": [
        {
          "internalType": "address",
          "name": "to",
          "type": "address"
        },
        {
          "internalType": "uint256",
          "name": "tokenId",
          "type": "uint256"
        }
      ],
      "name": "approve",
      "outputs": [],
      "stateMutability": "nonpayable",
      "type": "function"
    },
    {
      "inputs": [
        {
          "internalType": "address",
          "name": "owner",
          "type": "address"
        }
      ],
      "name": "balanceOf",
      "outputs": [
        {
          "internalType": "uint256",
          "name": "",
          "type": "uint256"
        }
      ],
      "stateMutability": "view",
      "type": "function"
    },
    {
      "inputs": [
        {
          "internalType": "address",
          "name": "",
          "type": "address"
        }
      ],
      "name": "balances",
      "outputs": [
        {
          "internalType": "uint256",
          "name": "",
          "type": "uint256"
        }
      ],
      "stateMutability": "view",
      "type": "function"
    },
    {
      "inputs": [
        {
          "internalType": "uint256",
          "name": "tokenId",
          "type": "uint256"
        }
      ],
      "name": "getApproved",
      "outputs": [
        {
          "internalType": "address",
          "name": "",
          "type": "address"
        }
      ],
      "stateMutability": "view",
      "type": "function"
    },
    {
      "inputs": [
        {
          "internalType": "address",
          "name": "owner",
          "type": "address"
        },
        {
          "internalType": "address",
          "name": "operator",
          "type": "address"
        }
      ],
      "name": "isApprovedForAll",
      "outputs": [
        {
          "internalType": "bool",
          "name": "",
          "type": "bool"
        }
      ],
      "stateMutability": "view",
      "type": "function"
    },
    {
      "inputs": [],
      "name": "name",
      "outputs": [
        {
          "internalType": "string",
          "name": "",
          "type": "string"
        }
      ],
      "stateMutability": "view",
      "type": "function"
    },
    {
      "inputs": [],
      "name": "newToken",
      "outputs": [
        {
          "internalType": "bool",
          "name": "",
          "type": "bool"
        }
      ],
      "stateMutability": "nonpayable",
      "type": "function"
    },
    {
      "inputs": [],
      "name": "owner",
      "outputs": [
        {
          "internalType": "address",
          "name": "",
          "type": "address"
        }
      ],
      "stateMutability": "view",
      "type": "function"
    },
    {
      "inputs": [
        {
          "internalType": "uint256",
          "name": "tokenId",
          "type": "uint256"
        }
      ],
      "name": "ownerOf",
      "outputs": [
        {
          "internalType": "address",
          "name": "",
          "type": "address"
        }
      ],
      "stateMutability": "view",
      "type": "function"
    },
    {
      "inputs": [
        {
          "internalType": "address",
          "name": "from",
          "type": "address"
        },
        {
          "internalType": "address",
          "name": "to",
          "type": "address"
        },
        {
          "internalType": "uint256",
          "name": "tokenId",
          "type": "uint256"
        }
      ],
      "name": "safeTransferFrom",
      "outputs": [],
      "stateMutability": "nonpayable",
      "type": "function"
    },
    {
      "inputs": [
        {
          "internalType": "address",
          "name": "from",
          "type": "address"
        },
        {
          "internalType": "address",
          "name": "to",
          "type": "address"
        },
        {
          "internalType": "uint256",
          "name": "tokenId",
          "type": "uint256"
        },
        {
          "internalType": "bytes",
          "name": "data",
          "type": "bytes"
        }
      ],
      "name": "safeTransferFrom",
      "outputs": [],
      "stateMutability": "nonpayable",
      "type": "function"
    },
    {
      "inputs": [
        {
          "internalType": "address",
          "name": "operator",
          "type": "address"
        },
        {
          "internalType": "bool",
          "name": "approved",
          "type": "bool"
        }
      ],
      "name": "setApprovalForAll",
      "outputs": [],
      "stateMutability": "nonpayable",
      "type": "function"
    },
    {
      "inputs": [
        {
          "internalType": "bytes4",
          "name": "interfaceId",
          "type": "bytes4"
        }
      ],
      "name": "supportsInterface",
      "outputs": [
        {
          "internalType": "bool",
          "name": "",
          "type": "bool"
        }
      ],
      "stateMutability": "view",
      "type": "function"
    },
    {
      "inputs": [],
      "name": "symbol",
      "outputs": [
        {
          "internalType": "string",
          "name": "",
          "type": "string"
        }
      ],
      "stateMutability": "view",
      "type": "function"
    },
    {
      "inputs": [
        {
          "internalType": "uint256",
          "name": "tokenId",
          "type": "uint256"
        }
      ],
      "name": "tokenURI",
      "outputs": [
        {
          "internalType": "string",
          "name": "",
          "type": "string"
        }
      ],
      "stateMutability": "view",
      "type": "function"
    },
    {
      "inputs": [
        {
          "internalType": "uint256",
          "name": "",
          "type": "uint256"
        }
      ],
      "name": "tokenUri",
      "outputs": [
        {
          "internalType": "string",
          "name": "",
          "type": "string"
        }
      ],
      "stateMutability": "view",
      "type": "function"
    },
    {
      "inputs": [
        {
          "internalType": "address",
          "name": "_to",
          "type": "address"
        }
      ],
      "name": "tokensOfOwner",
      "outputs": [
        {
          "internalType": "uint256[]",
          "name": "",
          "type": "uint256[]"
        }
      ],
      "stateMutability": "view",
      "type": "function"
    },
    {
      "inputs": [
        {
          "internalType": "address",
          "name": "",
          "type": "address"
        },
        {
          "internalType": "uint256",
          "name": "",
          "type": "uint256"
        }
      ],
      "name": "tokensOfOwnerArray",
      "outputs": [
        {
          "internalType": "uint256",
          "name": "",
          "type": "uint256"
        }
      ],
      "stateMutability": "view",
      "type": "function"
    },
    {
      "inputs": [
        {
          "internalType": "address",
          "name": "from",
          "type": "address"
        },
        {
          "internalType": "address",
          "name": "to",
          "type": "address"
        },
        {
          "internalType": "uint256",
          "name": "tokenId",
          "type": "uint256"
        }
      ],
      "name": "transferFrom",
      "outputs": [],
      "stateMutability": "nonpayable",
      "type": "function"
    }
  ],
  "bytecode": "0x608060405260006007553480156200001657600080fd5b506040518060400160405280600d81526020017f4578616d706c65546f6b656e73000000000000000000000000000000000000008152506040518060400160405280600381526020017f455874000000000000000000000000000000000000000000000000000000000081525081600090816200009491906200036a565b508060019081620000a691906200036a565b50505033600660006101000a81548173ffffffffffffffffffffffffffffffffffffffff021916908373ffffffffffffffffffffffffffffffffffffffff16021790555062000451565b600081519050919050565b7f4e487b7100000000000000000000000000000000000000000000000000000000600052604160045260246000fd5b7f4e487b7100000000000000000000000000000000000000000000000000000000600052602260045260246000fd5b600060028204905060018216806200017257607f821691505b6020821081036200018857620001876200012a565b5b50919050565b60008190508160005260206000209050919050565b60006020601f8301049050919050565b600082821b905092915050565b600060088302620001f27fffffffffffffffffffffffffffffffffffffffffffffffffffffffffffffffff82620001b3565b620001fe8683620001b3565b95508019841693508086168417925050509392505050565b6000819050919050565b6000819050919050565b60006200024b620002456200023f8462000216565b62000220565b62000216565b9050919050565b6000819050919050565b62000267836200022a565b6200027f620002768262000252565b848454620001c0565b825550505050565b600090565b6200029662000287565b620002a38184846200025c565b505050565b5b81811015620002cb57620002bf6000826200028c565b600181019050620002a9565b5050565b601f8211156200031a57620002e4816200018e565b620002ef84620001a3565b81016020851015620002ff578190505b620003176200030e85620001a3565b830182620002a8565b50505b505050565b600082821c905092915050565b60006200033f600019846008026200031f565b1980831691505092915050565b60006200035a83836200032c565b9150826002028217905092915050565b6200037582620000f0565b67ffffffffffffffff811115620003915762000390620000fb565b5b6200039d825462000159565b620003aa828285620002cf565b600060209050601f831160018114620003e25760008415620003cd578287015190505b620003d985826200034c565b86555062000449565b601f198416620003f2866200018e565b60005b828110156200041c57848901518255600182019150602085019450602081019050620003f5565b868310156200043c578489015162000438601f8916826200032c565b8355505b6001600288020188555050505b505050505050565b612ccb80620004616000396000f3fe608060405234801561001057600080fd5b50600436106101215760003560e01c806370a08231116100ad578063ac8b86ed11610071578063ac8b86ed14610340578063b88d4fde14610370578063c42bd05a1461038c578063c87b56dd146103aa578063e985e9c5146103da57610121565b806370a08231146102885780638462151c146102b85780638da5cb5b146102e857806395d89b4114610306578063a22cb4651461032457610121565b80631675f455116100f45780631675f455146101c057806323b872dd146101f057806327e235e31461020c57806342842e0e1461023c5780636352211e1461025857610121565b806301ffc9a71461012657806306fdde0314610156578063081812fc14610174578063095ea7b3146101a4575b600080fd5b610140600480360381019061013b9190611b86565b61040a565b60405161014d9190611bce565b60405180910390f35b61015e6104ec565b60405161016b9190611c79565b60405180910390f35b61018e60048036038101906101899190611cd1565b61057e565b60405161019b9190611d3f565b60405180910390f35b6101be60048036038101906101b99190611d86565b6105c4565b005b6101da60048036038101906101d59190611cd1565b6106db565b6040516101e79190611c79565b60405180910390f35b61020a60048036038101906102059190611dc6565b61077b565b005b61022660048036038101906102219190611e19565b6107db565b6040516102339190611e55565b60405180910390f35b61025660048036038101906102519190611dc6565b6107f3565b005b610272600480360381019061026d9190611cd1565b610813565b60405161027f9190611d3f565b60405180910390f35b6102a2600480360381019061029d9190611e19565b610899565b6040516102af9190611e55565b60405180910390f35b6102d260048036038101906102cd9190611e19565b610950565b6040516102df9190611f2e565b60405180910390f35b6102f06109e7565b6040516102fd9190611d3f565b60405180910390f35b61030e610a0d565b60405161031b9190611c79565b60405180910390f35b61033e60048036038101906103399190611f7c565b610a9f565b005b61035a60048036038101906103559190611d86565b610ab5565b6040516103679190611e55565b60405180910390f35b61038a600480360381019061038591906120f1565b610ae6565b005b610394610b48565b6040516103a19190611bce565b60405180910390f35b6103c460048036038101906103bf9190611cd1565b610cc9565b6040516103d19190611c79565b60405180910390f35b6103f460048036038101906103ef9190612174565b610d31565b6040516104019190611bce565b60405180910390f35b60007f80ac58cd000000000000000000000000000000000000000000000000000000007bffffffffffffffffffffffffffffffffffffffffffffffffffffffff1916827bffffffffffffffffffffffffffffffffffffffffffffffffffffffff191614806104d557507f5b5e139f000000000000000000000000000000000000000000000000000000007bffffffffffffffffffffffffffffffffffffffffffffffffffffffff1916827bffffffffffffffffffffffffffffffffffffffffffffffffffffffff1916145b806104e557506104e482610dc5565b5b9050919050565b6060600080546104fb906121e3565b80601f0160208091040260200160405190810160405280929190818152602001828054610527906121e3565b80156105745780601f1061054957610100808354040283529160200191610574565b820191906000526020600020905b81548152906001019060200180831161055757829003601f168201915b5050505050905090565b600061058982610e2f565b6004600083815260200190815260200160002060009054906101000a900473ffffffffffffffffffffffffffffffffffffffff169050919050565b60006105cf82610813565b90508073ffffffffffffffffffffffffffffffffffffffff168373ffffffffffffffffffffffffffffffffffffffff160361063f576040517f08c379a000000000000000000000000000000000000000000000000000000000815260040161063690612286565b60405180910390fd5b8073ffffffffffffffffffffffffffffffffffffffff1661065e610e7a565b73ffffffffffffffffffffffffffffffffffffffff16148061068d575061068c81610687610e7a565b610d31565b5b6106cc576040517f08c379a00000000000000000000000000000000000000000000000000000000081526004016106c390612318565b60405180910390fd5b6106d68383610e82565b505050565b600960205280600052604060002060009150905080546106fa906121e3565b80601f0160208091040260200160405190810160405280929190818152602001828054610726906121e3565b80156107735780601f1061074857610100808354040283529160200191610773565b820191906000526020600020905b81548152906001019060200180831161075657829003601f168201915b505050505081565b61078c610786610e7a565b82610f3b565b6107cb576040517f08c379a00000000000000000000000000000000000000000000000000000000081526004016107c2906123aa565b60405180910390fd5b6107d6838383610fd0565b505050565b600a6020528060005260406000206000915090505481565b61080e83838360405180602001604052806000815250610ae6565b505050565b60008061081f836112c9565b9050600073ffffffffffffffffffffffffffffffffffffffff168173ffffffffffffffffffffffffffffffffffffffff1603610890576040517f08c379a000000000000000000000000000000000000000000000000000000000815260040161088790612416565b60405180910390fd5b80915050919050565b60008073ffffffffffffffffffffffffffffffffffffffff168273ffffffffffffffffffffffffffffffffffffffff1603610909576040517f08c379a0000000000000000000000000000000000000000000000000000000008152600401610900906124a8565b60405180910390fd5b600360008373ffffffffffffffffffffffffffffffffffffffff1673ffffffffffffffffffffffffffffffffffffffff168152602001908152602001600020549050919050565b6060600860008373ffffffffffffffffffffffffffffffffffffffff1673ffffffffffffffffffffffffffffffffffffffff1681526020019081526020016000208054806020026020016040519081016040528092919081815260200182805480156109db57602002820191906000526020600020905b8154815260200190600101908083116109c7575b50505050509050919050565b600660009054906101000a900473ffffffffffffffffffffffffffffffffffffffff1681565b606060018054610a1c906121e3565b80601f0160208091040260200160405190810160405280929190818152602001828054610a48906121e3565b8015610a955780601f10610a6a57610100808354040283529160200191610a95565b820191906000526020600020905b815481529060010190602001808311610a7857829003601f168201915b5050505050905090565b610ab1610aaa610e7a565b8383611306565b5050565b60086020528160005260406000208181548110610ad157600080fd5b90600052602060002001600091509150505481565b610af7610af1610e7a565b83610f3b565b610b36576040517f08c379a0000000000000000000000000000000000000000000000000000000008152600401610b2d906123aa565b60405180910390fd5b610b4284848484611472565b50505050565b60008073ffffffffffffffffffffffffffffffffffffffff163373ffffffffffffffffffffffffffffffffffffffff1603610bb8576040517f08c379a0000000000000000000000000000000000000000000000000000000008152600401610baf90612514565b60405180910390fd5b600060076000815480929190610bcd90612563565b919050559050610bdd33826114ce565b600a60003373ffffffffffffffffffffffffffffffffffffffff1673ffffffffffffffffffffffffffffffffffffffff1681526020019081526020016000206000815480929190610c2d90612563565b9190505550610c3b81610cc9565b600960008381526020019081526020016000209081610c5a9190612757565b50600860003373ffffffffffffffffffffffffffffffffffffffff1673ffffffffffffffffffffffffffffffffffffffff168152602001908152602001600020819080600181540180825580915050600190039060005260206000200160009091909190915055600191505090565b6060610cd482610e2f565b6000610cde6116eb565b90506000815111610cfe5760405180602001604052806000815250610d29565b80610d0884611702565b604051602001610d19929190612865565b6040516020818303038152906040525b915050919050565b6000600560008473ffffffffffffffffffffffffffffffffffffffff1673ffffffffffffffffffffffffffffffffffffffff16815260200190815260200160002060008373ffffffffffffffffffffffffffffffffffffffff1673ffffffffffffffffffffffffffffffffffffffff16815260200190815260200160002060009054906101000a900460ff16905092915050565b60007f01ffc9a7000000000000000000000000000000000000000000000000000000007bffffffffffffffffffffffffffffffffffffffffffffffffffffffff1916827bffffffffffffffffffffffffffffffffffffffffffffffffffffffff1916149050919050565b610e38816117d0565b610e77576040517f08c379a0000000000000000000000000000000000000000000000000000000008152600401610e6e90612416565b60405180910390fd5b50565b600033905090565b816004600083815260200190815260200160002060006101000a81548173ffffffffffffffffffffffffffffffffffffffff021916908373ffffffffffffffffffffffffffffffffffffffff160217905550808273ffffffffffffffffffffffffffffffffffffffff16610ef583610813565b73ffffffffffffffffffffffffffffffffffffffff167f8c5be1e5ebec7d5bd14f71427d1e84f3dd0314c0f7b2291e5b200ac8c7c3b92560405160405180910390a45050565b600080610f4783610813565b90508073ffffffffffffffffffffffffffffffffffffffff168473ffffffffffffffffffffffffffffffffffffffff161480610f895750610f888185610d31565b5b80610fc757508373ffffffffffffffffffffffffffffffffffffffff16610faf8461057e565b73ffffffffffffffffffffffffffffffffffffffff16145b91505092915050565b8273ffffffffffffffffffffffffffffffffffffffff16610ff082610813565b73ffffffffffffffffffffffffffffffffffffffff1614611046576040517f08c379a000000000000000000000000000000000000000000000000000000000815260040161103d906128fb565b60405180910390fd5b600073ffffffffffffffffffffffffffffffffffffffff168273ffffffffffffffffffffffffffffffffffffffff16036110b5576040517f08c379a00000000000000000000000000000000000000000000000000000000081526004016110ac9061298d565b60405180910390fd5b6110c28383836001611811565b8273ffffffffffffffffffffffffffffffffffffffff166110e282610813565b73ffffffffffffffffffffffffffffffffffffffff1614611138576040517f08c379a000000000000000000000000000000000000000000000000000000000815260040161112f906128fb565b60405180910390fd5b6004600082815260200190815260200160002060006101000a81549073ffffffffffffffffffffffffffffffffffffffff02191690556001600360008573ffffffffffffffffffffffffffffffffffffffff1673ffffffffffffffffffffffffffffffffffffffff168152602001908152602001600020600082825403925050819055506001600360008473ffffffffffffffffffffffffffffffffffffffff1673ffffffffffffffffffffffffffffffffffffffff16815260200190815260200160002060008282540192505081905550816002600083815260200190815260200160002060006101000a81548173ffffffffffffffffffffffffffffffffffffffff021916908373ffffffffffffffffffffffffffffffffffffffff160217905550808273ffffffffffffffffffffffffffffffffffffffff168473ffffffffffffffffffffffffffffffffffffffff167fddf252ad1be2c89b69c2b068fc378daa952ba7f163c4a11628f55a4df523b3ef60405160405180910390a46112c48383836001611817565b505050565b60006002600083815260200190815260200160002060009054906101000a900473ffffffffffffffffffffffffffffffffffffffff169050919050565b8173ffffffffffffffffffffffffffffffffffffffff168373ffffffffffffffffffffffffffffffffffffffff1603611374576040517f08c379a000000000000000000000000000000000000000000000000000000000815260040161136b906129f9565b60405180910390fd5b80600560008573ffffffffffffffffffffffffffffffffffffffff1673ffffffffffffffffffffffffffffffffffffffff16815260200190815260200160002060008473ffffffffffffffffffffffffffffffffffffffff1673ffffffffffffffffffffffffffffffffffffffff16815260200190815260200160002060006101000a81548160ff0219169083151502179055508173ffffffffffffffffffffffffffffffffffffffff168373ffffffffffffffffffffffffffffffffffffffff167f17307eab39ab6107e8899845ad3d59bd9653f200f220920489ca2b5937696c31836040516114659190611bce565b60405180910390a3505050565b61147d848484610fd0565b6114898484848461181d565b6114c8576040517f08c379a00000000000000000000000000000000000000000000000000000000081526004016114bf90612a8b565b60405180910390fd5b50505050565b600073ffffffffffffffffffffffffffffffffffffffff168273ffffffffffffffffffffffffffffffffffffffff160361153d576040517f08c379a000000000000000000000000000000000000000000000000000000000815260040161153490612af7565b60405180910390fd5b611546816117d0565b15611586576040517f08c379a000000000000000000000000000000000000000000000000000000000815260040161157d90612b63565b60405180910390fd5b611594600083836001611811565b61159d816117d0565b156115dd576040517f08c379a00000000000000000000000000000000000000000000000000000000081526004016115d490612b63565b60405180910390fd5b6001600360008473ffffffffffffffffffffffffffffffffffffffff1673ffffffffffffffffffffffffffffffffffffffff16815260200190815260200160002060008282540192505081905550816002600083815260200190815260200160002060006101000a81548173ffffffffffffffffffffffffffffffffffffffff021916908373ffffffffffffffffffffffffffffffffffffffff160217905550808273ffffffffffffffffffffffffffffffffffffffff16600073ffffffffffffffffffffffffffffffffffffffff167fddf252ad1be2c89b69c2b068fc378daa952ba7f163c4a11628f55a4df523b3ef60405160405180910390a46116e7600083836001611817565b5050565b606060405180602001604052806000815250905090565b606060006001611711846119a4565b01905060008167ffffffffffffffff8111156117305761172f611fc6565b5b6040519080825280601f01601f1916602001820160405280156117625781602001600182028036833780820191505090505b509050600082602001820190505b6001156117c5578080600190039150507f3031323334353637383961626364656600000000000000000000000000000000600a86061a8153600a85816117b9576117b8612b83565b5b04945060008503611770575b819350505050919050565b60008073ffffffffffffffffffffffffffffffffffffffff166117f2836112c9565b73ffffffffffffffffffffffffffffffffffffffff1614159050919050565b50505050565b50505050565b600061183e8473ffffffffffffffffffffffffffffffffffffffff16611af7565b15611997578373ffffffffffffffffffffffffffffffffffffffff1663150b7a02611867610e7a565b8786866040518563ffffffff1660e01b81526004016118899493929190612c07565b6020604051808303816000875af19250505080156118c557506040513d601f19601f820116820180604052508101906118c29190612c68565b60015b611947573d80600081146118f5576040519150601f19603f3d011682016040523d82523d6000602084013e6118fa565b606091505b50600081510361193f576040517f08c379a000000000000000000000000000000000000000000000000000000000815260040161193690612a8b565b60405180910390fd5b805181602001fd5b63150b7a0260e01b7bffffffffffffffffffffffffffffffffffffffffffffffffffffffff1916817bffffffffffffffffffffffffffffffffffffffffffffffffffffffff19161491505061199c565b600190505b949350505050565b600080600090507a184f03e93ff9f4daa797ed6e38ed64bf6a1f0100000000000000008310611a02577a184f03e93ff9f4daa797ed6e38ed64bf6a1f01000000000000000083816119f8576119f7612b83565b5b0492506040810190505b6d04ee2d6d415b85acef81000000008310611a3f576d04ee2d6d415b85acef81000000008381611a3557611a34612b83565b5b0492506020810190505b662386f26fc100008310611a6e57662386f26fc100008381611a6457611a63612b83565b5b0492506010810190505b6305f5e1008310611a97576305f5e1008381611a8d57611a8c612b83565b5b0492506008810190505b6127108310611abc576127108381611ab257611ab1612b83565b5b0492506004810190505b60648310611adf5760648381611ad557611ad4612b83565b5b0492506002810190505b600a8310611aee576001810190505b80915050919050565b6000808273ffffffffffffffffffffffffffffffffffffffff163b119050919050565b6000604051905090565b600080fd5b600080fd5b60007fffffffff0000000000000000000000000000000000000000000000000000000082169050919050565b611b6381611b2e565b8114611b6e57600080fd5b50565b600081359050611b8081611b5a565b92915050565b600060208284031215611b9c57611b9b611b24565b5b6000611baa84828501611b71565b91505092915050565b60008115159050919050565b611bc881611bb3565b82525050565b6000602082019050611be36000830184611bbf565b92915050565b600081519050919050565b600082825260208201905092915050565b60005b83811015611c23578082015181840152602081019050611c08565b60008484015250505050565b6000601f19601f8301169050919050565b6000611c4b82611be9565b611c558185611bf4565b9350611c65818560208601611c05565b611c6e81611c2f565b840191505092915050565b60006020820190508181036000830152611c938184611c40565b905092915050565b6000819050919050565b611cae81611c9b565b8114611cb957600080fd5b50565b600081359050611ccb81611ca5565b92915050565b600060208284031215611ce757611ce6611b24565b5b6000611cf584828501611cbc565b91505092915050565b600073ffffffffffffffffffffffffffffffffffffffff82169050919050565b6000611d2982611cfe565b9050919050565b611d3981611d1e565b82525050565b6000602082019050611d546000830184611d30565b92915050565b611d6381611d1e565b8114611d6e57600080fd5b50565b600081359050611d8081611d5a565b92915050565b60008060408385031215611d9d57611d9c611b24565b5b6000611dab85828601611d71565b9250506020611dbc85828601611cbc565b9150509250929050565b600080600060608486031215611ddf57611dde611b24565b5b6000611ded86828701611d71565b9350506020611dfe86828701611d71565b9250506040611e0f86828701611cbc565b9150509250925092565b600060208284031215611e2f57611e2e611b24565b5b6000611e3d84828501611d71565b91505092915050565b611e4f81611c9b565b82525050565b6000602082019050611e6a6000830184611e46565b92915050565b600081519050919050565b600082825260208201905092915050565b6000819050602082019050919050565b611ea581611c9b565b82525050565b6000611eb78383611e9c565b60208301905092915050565b6000602082019050919050565b6000611edb82611e70565b611ee58185611e7b565b9350611ef083611e8c565b8060005b83811015611f21578151611f088882611eab565b9750611f1383611ec3565b925050600181019050611ef4565b5085935050505092915050565b60006020820190508181036000830152611f488184611ed0565b905092915050565b611f5981611bb3565b8114611f6457600080fd5b50565b600081359050611f7681611f50565b92915050565b60008060408385031215611f9357611f92611b24565b5b6000611fa185828601611d71565b9250506020611fb285828601611f67565b9150509250929050565b600080fd5b600080fd5b7f4e487b7100000000000000000000000000000000000000000000000000000000600052604160045260246000fd5b611ffe82611c2f565b810181811067ffffffffffffffff8211171561201d5761201c611fc6565b5b80604052505050565b6000612030611b1a565b905061203c8282611ff5565b919050565b600067ffffffffffffffff82111561205c5761205b611fc6565b5b61206582611c2f565b9050602081019050919050565b82818337600083830152505050565b600061209461208f84612041565b612026565b9050828152602081018484840111156120b0576120af611fc1565b5b6120bb848285612072565b509392505050565b600082601f8301126120d8576120d7611fbc565b5b81356120e8848260208601612081565b91505092915050565b6000806000806080858703121561210b5761210a611b24565b5b600061211987828801611d71565b945050602061212a87828801611d71565b935050604061213b87828801611cbc565b925050606085013567ffffffffffffffff81111561215c5761215b611b29565b5b612168878288016120c3565b91505092959194509250565b6000806040838503121561218b5761218a611b24565b5b600061219985828601611d71565b92505060206121aa85828601611d71565b9150509250929050565b7f4e487b7100000000000000000000000000000000000000000000000000000000600052602260045260246000fd5b600060028204905060018216806121fb57607f821691505b60208210810361220e5761220d6121b4565b5b50919050565b7f4552433732313a20617070726f76616c20746f2063757272656e74206f776e6560008201527f7200000000000000000000000000000000000000000000000000000000000000602082015250565b6000612270602183611bf4565b915061227b82612214565b604082019050919050565b6000602082019050818103600083015261229f81612263565b9050919050565b7f4552433732313a20617070726f76652063616c6c6572206973206e6f7420746f60008201527f6b656e206f776e6572206f7220617070726f76656420666f7220616c6c000000602082015250565b6000612302603d83611bf4565b915061230d826122a6565b604082019050919050565b60006020820190508181036000830152612331816122f5565b9050919050565b7f4552433732313a2063616c6c6572206973206e6f7420746f6b656e206f776e6560008201527f72206f7220617070726f76656400000000000000000000000000000000000000602082015250565b6000612394602d83611bf4565b915061239f82612338565b604082019050919050565b600060208201905081810360008301526123c381612387565b9050919050565b7f4552433732313a20696e76616c696420746f6b656e2049440000000000000000600082015250565b6000612400601883611bf4565b915061240b826123ca565b602082019050919050565b6000602082019050818103600083015261242f816123f3565b9050919050565b7f4552433732313a2061646472657373207a65726f206973206e6f74206120766160008201527f6c6964206f776e65720000000000000000000000000000000000000000000000602082015250565b6000612492602983611bf4565b915061249d82612436565b604082019050919050565b600060208201905081810360008301526124c181612485565b9050919050565b7f4e6f7420612076616c6964206164647265737300000000000000000000000000600082015250565b60006124fe601383611bf4565b9150612509826124c8565b602082019050919050565b6000602082019050818103600083015261252d816124f1565b9050919050565b7f4e487b7100000000000000000000000000000000000000000000000000000000600052601160045260246000fd5b600061256e82611c9b565b91507fffffffffffffffffffffffffffffffffffffffffffffffffffffffffffffffff82036125a05761259f612534565b5b600182019050919050565b60008190508160005260206000209050919050565b60006020601f8301049050919050565b600082821b905092915050565b60006008830261260d7fffffffffffffffffffffffffffffffffffffffffffffffffffffffffffffffff826125d0565b61261786836125d0565b95508019841693508086168417925050509392505050565b6000819050919050565b600061265461264f61264a84611c9b565b61262f565b611c9b565b9050919050565b6000819050919050565b61266e83612639565b61268261267a8261265b565b8484546125dd565b825550505050565b600090565b61269761268a565b6126a2818484612665565b505050565b5b818110156126c6576126bb60008261268f565b6001810190506126a8565b5050565b601f82111561270b576126dc816125ab565b6126e5846125c0565b810160208510156126f4578190505b612708612700856125c0565b8301826126a7565b50505b505050565b600082821c905092915050565b600061272e60001984600802612710565b1980831691505092915050565b6000612747838361271d565b9150826002028217905092915050565b61276082611be9565b67ffffffffffffffff81111561277957612778611fc6565b5b61278382546121e3565b61278e8282856126ca565b600060209050601f8311600181146127c157600084156127af578287015190505b6127b9858261273b565b865550612821565b601f1984166127cf866125ab565b60005b828110156127f7578489015182556001820191506020850194506020810190506127d2565b868310156128145784890151612810601f89168261271d565b8355505b6001600288020188555050505b505050505050565b600081905092915050565b600061283f82611be9565b6128498185612829565b9350612859818560208601611c05565b80840191505092915050565b60006128718285612834565b915061287d8284612834565b91508190509392505050565b7f4552433732313a207472616e736665722066726f6d20696e636f72726563742060008201527f6f776e6572000000000000000000000000000000000000000000000000000000602082015250565b60006128e5602583611bf4565b91506128f082612889565b604082019050919050565b60006020820190508181036000830152612914816128d8565b9050919050565b7f4552433732313a207472616e7366657220746f20746865207a65726f2061646460008201527f7265737300000000000000000000000000000000000000000000000000000000602082015250565b6000612977602483611bf4565b91506129828261291b565b604082019050919050565b600060208201905081810360008301526129a68161296a565b9050919050565b7f4552433732313a20617070726f766520746f2063616c6c657200000000000000600082015250565b60006129e3601983611bf4565b91506129ee826129ad565b602082019050919050565b60006020820190508181036000830152612a12816129d6565b9050919050565b7f4552433732313a207472616e7366657220746f206e6f6e20455243373231526560008201527f63656976657220696d706c656d656e7465720000000000000000000000000000602082015250565b6000612a75603283611bf4565b9150612a8082612a19565b604082019050919050565b60006020820190508181036000830152612aa481612a68565b9050919050565b7f4552433732313a206d696e7420746f20746865207a65726f2061646472657373600082015250565b6000612ae1602083611bf4565b9150612aec82612aab565b602082019050919050565b60006020820190508181036000830152612b1081612ad4565b9050919050565b7f4552433732313a20746f6b656e20616c7265616479206d696e74656400000000600082015250565b6000612b4d601c83611bf4565b9150612b5882612b17565b602082019050919050565b60006020820190508181036000830152612b7c81612b40565b9050919050565b7f4e487b7100000000000000000000000000000000000000000000000000000000600052601260045260246000fd5b600081519050919050565b600082825260208201905092915050565b6000612bd982612bb2565b612be38185612bbd565b9350612bf3818560208601611c05565b612bfc81611c2f565b840191505092915050565b6000608082019050612c1c6000830187611d30565b612c296020830186611d30565b612c366040830185611e46565b8181036060830152612c488184612bce565b905095945050505050565b600081519050612c6281611b5a565b92915050565b600060208284031215612c7e57612c7d611b24565b5b6000612c8c84828501612c53565b9150509291505056fea264697066735822122055c817d22969ec37c6a00dcfdcd0fb63529fef06b47fc10ab7a6ff61b3b4d26f64736f6c63430008120033",
  "linkReferences": {},
  "deployedLinkReferences": {}
}