{
  "_format": "hh-sol-artifact-1",
  "contractName": "NewPass",
  "sourceName": "contracts/Newpass.sol",
  "abi": [
    {
      "inputs": [],
      "stateMutability": "nonpayable",
      "type": "constructor"
    },
    {
      "anonymous": false,
      "inputs": [
        {
          "indexed": true,
          "internalType": "address",
          "name": "owner",
          "type": "address"
        },
        {
          "indexed": true,
          "internalType": "address",
          "name": "approved",
          "type": "address"
        },
        {
          "indexed": true,
          "internalType": "uint256",
          "name": "tokenId",
          "type": "uint256"
        }
      ],
      "name": "Approval",
      "type": "event"
    },
    {
      "anonymous": false,
      "inputs": [
        {
          "indexed": true,
          "internalType": "address",
          "name": "owner",
          "type": "address"
        },
        {
          "indexed": true,
          "internalType": "address",
          "name": "operator",
          "type": "address"
        },
        {
          "indexed": false,
          "internalType": "bool",
          "name": "approved",
          "type": "bool"
        }
      ],
      "name": "ApprovalForAll",
      "type": "event"
    },
    {
      "anonymous": false,
      "inputs": [
        {
          "indexed": true,
          "internalType": "address",
          "name": "from",
          "type": "address"
        },
        {
          "indexed": true,
          "internalType": "address",
          "name": "to",
          "type": "address"
        },
        {
          "indexed": true,
          "internalType": "uint256",
          "name": "tokenId",
          "type": "uint256"
        }
      ],
      "name": "Transfer",
      "type": "event"
    },
    {
      "inputs": [],
      "name": "NakamigosContractAddress",
      "outputs": [
        {
          "internalType": "address",
          "name": "",
          "type": "address"
        }
      ],
      "stateMutability": "view",
      "type": "function"
    },
    {
      "inputs": [
        {
          "internalType": "address",
          "name": "to",
          "type": "address"
        },
        {
          "internalType": "uint256",
          "name": "tokenId",
          "type": "uint256"
        }
      ],
      "name": "approve",
      "outputs": [],
      "stateMutability": "nonpayable",
      "type": "function"
    },
    {
      "inputs": [
        {
          "internalType": "address",
          "name": "owner",
          "type": "address"
        }
      ],
      "name": "balanceOf",
      "outputs": [
        {
          "internalType": "uint256",
          "name": "",
          "type": "uint256"
        }
      ],
      "stateMutability": "view",
      "type": "function"
    },
    {
      "inputs": [
        {
          "internalType": "uint256",
          "name": "tokenId",
          "type": "uint256"
        }
      ],
      "name": "getApproved",
      "outputs": [
        {
          "internalType": "address",
          "name": "",
          "type": "address"
        }
      ],
      "stateMutability": "view",
      "type": "function"
    },
    {
      "inputs": [
        {
          "internalType": "address",
          "name": "_to",
          "type": "address"
        }
      ],
      "name": "holdsNakaNFTs",
      "outputs": [
        {
          "internalType": "bool",
          "name": "",
          "type": "bool"
        }
      ],
      "stateMutability": "view",
      "type": "function"
    },
    {
      "inputs": [
        {
          "internalType": "address",
          "name": "owner",
          "type": "address"
        },
        {
          "internalType": "address",
          "name": "operator",
          "type": "address"
        }
      ],
      "name": "isApprovedForAll",
      "outputs": [
        {
          "internalType": "bool",
          "name": "",
          "type": "bool"
        }
      ],
      "stateMutability": "view",
      "type": "function"
    },
    {
      "inputs": [],
      "name": "name",
      "outputs": [
        {
          "internalType": "string",
          "name": "",
          "type": "string"
        }
      ],
      "stateMutability": "view",
      "type": "function"
    },
    {
      "inputs": [],
      "name": "newToken",
      "outputs": [
        {
          "internalType": "bool",
          "name": "",
          "type": "bool"
        }
      ],
      "stateMutability": "nonpayable",
      "type": "function"
    },
    {
      "inputs": [
        {
          "internalType": "uint256",
          "name": "tokenId",
          "type": "uint256"
        }
      ],
      "name": "ownerOf",
      "outputs": [
        {
          "internalType": "address",
          "name": "",
          "type": "address"
        }
      ],
      "stateMutability": "view",
      "type": "function"
    },
    {
      "inputs": [
        {
          "internalType": "address",
          "name": "_to",
          "type": "address"
        }
      ],
      "name": "passIssedToAdress",
      "outputs": [
        {
          "internalType": "bool",
          "name": "",
          "type": "bool"
        }
      ],
      "stateMutability": "view",
      "type": "function"
    },
    {
      "inputs": [
        {
          "internalType": "address",
          "name": "",
          "type": "address"
        }
      ],
      "name": "passIssued",
      "outputs": [
        {
          "internalType": "bool",
          "name": "",
          "type": "bool"
        }
      ],
      "stateMutability": "view",
      "type": "function"
    },
    {
      "inputs": [
        {
          "internalType": "address",
          "name": "from",
          "type": "address"
        },
        {
          "internalType": "address",
          "name": "to",
          "type": "address"
        },
        {
          "internalType": "uint256",
          "name": "tokenId",
          "type": "uint256"
        }
      ],
      "name": "safeTransferFrom",
      "outputs": [],
      "stateMutability": "nonpayable",
      "type": "function"
    },
    {
      "inputs": [
        {
          "internalType": "address",
          "name": "from",
          "type": "address"
        },
        {
          "internalType": "address",
          "name": "to",
          "type": "address"
        },
        {
          "internalType": "uint256",
          "name": "tokenId",
          "type": "uint256"
        },
        {
          "internalType": "bytes",
          "name": "data",
          "type": "bytes"
        }
      ],
      "name": "safeTransferFrom",
      "outputs": [],
      "stateMutability": "nonpayable",
      "type": "function"
    },
    {
      "inputs": [
        {
          "internalType": "address",
          "name": "operator",
          "type": "address"
        },
        {
          "internalType": "bool",
          "name": "approved",
          "type": "bool"
        }
      ],
      "name": "setApprovalForAll",
      "outputs": [],
      "stateMutability": "nonpayable",
      "type": "function"
    },
    {
      "inputs": [
        {
          "internalType": "bytes4",
          "name": "interfaceId",
          "type": "bytes4"
        }
      ],
      "name": "supportsInterface",
      "outputs": [
        {
          "internalType": "bool",
          "name": "",
          "type": "bool"
        }
      ],
      "stateMutability": "view",
      "type": "function"
    },
    {
      "inputs": [],
      "name": "symbol",
      "outputs": [
        {
          "internalType": "string",
          "name": "",
          "type": "string"
        }
      ],
      "stateMutability": "view",
      "type": "function"
    },
    {
      "inputs": [
        {
          "internalType": "uint256",
          "name": "tokenId",
          "type": "uint256"
        }
      ],
      "name": "tokenURI",
      "outputs": [
        {
          "internalType": "string",
          "name": "",
          "type": "string"
        }
      ],
      "stateMutability": "view",
      "type": "function"
    },
    {
      "inputs": [
        {
          "internalType": "address",
          "name": "from",
          "type": "address"
        },
        {
          "internalType": "address",
          "name": "to",
          "type": "address"
        },
        {
          "internalType": "uint256",
          "name": "tokenId",
          "type": "uint256"
        }
      ],
      "name": "transferFrom",
      "outputs": [],
      "stateMutability": "nonpayable",
      "type": "function"
    }
  ],
  "bytecode": "0x60806040526000600660006101000a81548161ffff021916908361ffff16021790555073d774557b647330c91bf44cfeab205095f7e6c367600660026101000a81548173ffffffffffffffffffffffffffffffffffffffff021916908373ffffffffffffffffffffffffffffffffffffffff1602179055503480156200008457600080fd5b506040518060400160405280600d81526020017f4578616d706c65546f6b656e73000000000000000000000000000000000000008152506040518060400160405280600381526020017f4558740000000000000000000000000000000000000000000000000000000000815250816000908162000102919062000397565b50806001908162000114919062000397565b5050506200047e565b600081519050919050565b7f4e487b7100000000000000000000000000000000000000000000000000000000600052604160045260246000fd5b7f4e487b7100000000000000000000000000000000000000000000000000000000600052602260045260246000fd5b600060028204905060018216806200019f57607f821691505b602082108103620001b557620001b462000157565b5b50919050565b60008190508160005260206000209050919050565b60006020601f8301049050919050565b600082821b905092915050565b6000600883026200021f7fffffffffffffffffffffffffffffffffffffffffffffffffffffffffffffffff82620001e0565b6200022b8683620001e0565b95508019841693508086168417925050509392505050565b6000819050919050565b6000819050919050565b600062000278620002726200026c8462000243565b6200024d565b62000243565b9050919050565b6000819050919050565b620002948362000257565b620002ac620002a3826200027f565b848454620001ed565b825550505050565b600090565b620002c3620002b4565b620002d081848462000289565b505050565b5b81811015620002f857620002ec600082620002b9565b600181019050620002d6565b5050565b601f82111562000347576200031181620001bb565b6200031c84620001d0565b810160208510156200032c578190505b620003446200033b85620001d0565b830182620002d5565b50505b505050565b600082821c905092915050565b60006200036c600019846008026200034c565b1980831691505092915050565b600062000387838362000359565b9150826002028217905092915050565b620003a2826200011d565b67ffffffffffffffff811115620003be57620003bd62000128565b5b620003ca825462000186565b620003d7828285620002fc565b600060209050601f8311600181146200040f5760008415620003fa578287015190505b62000406858262000379565b86555062000476565b601f1984166200041f86620001bb565b60005b82811015620004495784890151825560018201915060208501945060208101905062000422565b8683101562000469578489015162000465601f89168262000359565b8355505b6001600288020188555050505b505050505050565b612b67806200048e6000396000f3fe608060405234801561001057600080fd5b50600436106101165760003560e01c80636352211e116100a2578063b88d4fde11610071578063b88d4fde14610305578063c42bd05a14610321578063c87b56dd1461033f578063e985e9c51461036f578063f65b3e8d1461039f57610116565b80636352211e1461026b57806370a082311461029b57806395d89b41146102cb578063a22cb465146102e957610116565b8063095ea7b3116100e9578063095ea7b3146101c957806319165611146101e55780631a21a75a1461020357806323b872dd1461023357806342842e0e1461024f57610116565b806301ffc9a71461011b57806306e882af1461014b57806306fdde031461017b578063081812fc14610199575b600080fd5b61013560048036038101906101309190611b92565b6103cf565b6040516101429190611bda565b60405180910390f35b61016560048036038101906101609190611c53565b6104b1565b6040516101729190611bda565b60405180910390f35b6101836104d1565b6040516101909190611d10565b60405180910390f35b6101b360048036038101906101ae9190611d68565b610563565b6040516101c09190611da4565b60405180910390f35b6101e360048036038101906101de9190611dbf565b6105a9565b005b6101ed6106c0565b6040516101fa9190611da4565b60405180910390f35b61021d60048036038101906102189190611c53565b6106e6565b60405161022a9190611bda565b60405180910390f35b61024d60048036038101906102489190611dff565b61073c565b005b61026960048036038101906102649190611dff565b61079c565b005b61028560048036038101906102809190611d68565b6107bc565b6040516102929190611da4565b60405180910390f35b6102b560048036038101906102b09190611c53565b610842565b6040516102c29190611e61565b60405180910390f35b6102d36108f9565b6040516102e09190611d10565b60405180910390f35b61030360048036038101906102fe9190611ea8565b61098b565b005b61031f600480360381019061031a919061201d565b6109a1565b005b610329610a03565b6040516103369190611bda565b60405180910390f35b61035960048036038101906103549190611d68565b610c11565b6040516103669190611d10565b60405180910390f35b610389600480360381019061038491906120a0565b610c79565b6040516103969190611bda565b60405180910390f35b6103b960048036038101906103b49190611c53565b610d0d565b6040516103c69190611bda565b60405180910390f35b60007f80ac58cd000000000000000000000000000000000000000000000000000000007bffffffffffffffffffffffffffffffffffffffffffffffffffffffff1916827bffffffffffffffffffffffffffffffffffffffffffffffffffffffff1916148061049a57507f5b5e139f000000000000000000000000000000000000000000000000000000007bffffffffffffffffffffffffffffffffffffffffffffffffffffffff1916827bffffffffffffffffffffffffffffffffffffffffffffffffffffffff1916145b806104aa57506104a982610dd1565b5b9050919050565b60076020528060005260406000206000915054906101000a900460ff1681565b6060600080546104e09061210f565b80601f016020809104026020016040519081016040528092919081815260200182805461050c9061210f565b80156105595780601f1061052e57610100808354040283529160200191610559565b820191906000526020600020905b81548152906001019060200180831161053c57829003601f168201915b5050505050905090565b600061056e82610e3b565b6004600083815260200190815260200160002060009054906101000a900473ffffffffffffffffffffffffffffffffffffffff169050919050565b60006105b4826107bc565b90508073ffffffffffffffffffffffffffffffffffffffff168373ffffffffffffffffffffffffffffffffffffffff1603610624576040517f08c379a000000000000000000000000000000000000000000000000000000000815260040161061b906121b2565b60405180910390fd5b8073ffffffffffffffffffffffffffffffffffffffff16610643610e86565b73ffffffffffffffffffffffffffffffffffffffff16148061067257506106718161066c610e86565b610c79565b5b6106b1576040517f08c379a00000000000000000000000000000000000000000000000000000000081526004016106a890612244565b60405180910390fd5b6106bb8383610e8e565b505050565b600660029054906101000a900473ffffffffffffffffffffffffffffffffffffffff1681565b6000600760008373ffffffffffffffffffffffffffffffffffffffff1673ffffffffffffffffffffffffffffffffffffffff16815260200190815260200160002060009054906101000a900460ff169050919050565b61074d610747610e86565b82610f47565b61078c576040517f08c379a0000000000000000000000000000000000000000000000000000000008152600401610783906122d6565b60405180910390fd5b610797838383610fdc565b505050565b6107b7838383604051806020016040528060008152506109a1565b505050565b6000806107c8836112d5565b9050600073ffffffffffffffffffffffffffffffffffffffff168173ffffffffffffffffffffffffffffffffffffffff1603610839576040517f08c379a000000000000000000000000000000000000000000000000000000000815260040161083090612342565b60405180910390fd5b80915050919050565b60008073ffffffffffffffffffffffffffffffffffffffff168273ffffffffffffffffffffffffffffffffffffffff16036108b2576040517f08c379a00000000000000000000000000000000000000000000000000000000081526004016108a9906123d4565b60405180910390fd5b600360008373ffffffffffffffffffffffffffffffffffffffff1673ffffffffffffffffffffffffffffffffffffffff168152602001908152602001600020549050919050565b6060600180546109089061210f565b80601f01602080910402602001604051908101604052809291908181526020018280546109349061210f565b80156109815780601f1061095657610100808354040283529160200191610981565b820191906000526020600020905b81548152906001019060200180831161096457829003601f168201915b5050505050905090565b61099d610996610e86565b8383611312565b5050565b6109b26109ac610e86565b83610f47565b6109f1576040517f08c379a00000000000000000000000000000000000000000000000000000000081526004016109e8906122d6565b60405180910390fd5b6109fd8484848461147e565b50505050565b60008073ffffffffffffffffffffffffffffffffffffffff163373ffffffffffffffffffffffffffffffffffffffff1603610a73576040517f08c379a0000000000000000000000000000000000000000000000000000000008152600401610a6a90612440565b60405180910390fd5b60001515600760003373ffffffffffffffffffffffffffffffffffffffff1673ffffffffffffffffffffffffffffffffffffffff16815260200190815260200160002060009054906101000a900460ff16151514610b06576040517f08c379a0000000000000000000000000000000000000000000000000000000008152600401610afd906124ac565b60405180910390fd5b6000610b1133610d0d565b90506001151581151514610b5a576040517f08c379a0000000000000000000000000000000000000000000000000000000008152600401610b5190612518565b60405180910390fd5b60006006600081819054906101000a900461ffff1680929190610b7c90612575565b91906101000a81548161ffff021916908361ffff16021790555061ffff169050610ba633826114da565b610baf81610c11565b506001600760003373ffffffffffffffffffffffffffffffffffffffff1673ffffffffffffffffffffffffffffffffffffffff16815260200190815260200160002060006101000a81548160ff02191690831515021790555060019250505090565b6060610c1c82610e3b565b6000610c266116f7565b90506000815111610c465760405180602001604052806000815250610c71565b80610c508461170e565b604051602001610c619291906125db565b6040516020818303038152906040525b915050919050565b6000600560008473ffffffffffffffffffffffffffffffffffffffff1673ffffffffffffffffffffffffffffffffffffffff16815260200190815260200160002060008373ffffffffffffffffffffffffffffffffffffffff1673ffffffffffffffffffffffffffffffffffffffff16815260200190815260200160002060009054906101000a900460ff16905092915050565b600080600660029054906101000a900473ffffffffffffffffffffffffffffffffffffffff1673ffffffffffffffffffffffffffffffffffffffff16638462151c846040518263ffffffff1660e01b8152600401610d6b9190611da4565b600060405180830381865afa158015610d88573d6000803e3d6000fd5b505050506040513d6000823e3d601f19601f82011682018060405250810190610db191906126dc565b90506001815110610dc6576001915050610dcc565b60009150505b919050565b60007f01ffc9a7000000000000000000000000000000000000000000000000000000007bffffffffffffffffffffffffffffffffffffffffffffffffffffffff1916827bffffffffffffffffffffffffffffffffffffffffffffffffffffffff1916149050919050565b610e44816117dc565b610e83576040517f08c379a0000000000000000000000000000000000000000000000000000000008152600401610e7a90612342565b60405180910390fd5b50565b600033905090565b816004600083815260200190815260200160002060006101000a81548173ffffffffffffffffffffffffffffffffffffffff021916908373ffffffffffffffffffffffffffffffffffffffff160217905550808273ffffffffffffffffffffffffffffffffffffffff16610f01836107bc565b73ffffffffffffffffffffffffffffffffffffffff167f8c5be1e5ebec7d5bd14f71427d1e84f3dd0314c0f7b2291e5b200ac8c7c3b92560405160405180910390a45050565b600080610f53836107bc565b90508073ffffffffffffffffffffffffffffffffffffffff168473ffffffffffffffffffffffffffffffffffffffff161480610f955750610f948185610c79565b5b80610fd357508373ffffffffffffffffffffffffffffffffffffffff16610fbb84610563565b73ffffffffffffffffffffffffffffffffffffffff16145b91505092915050565b8273ffffffffffffffffffffffffffffffffffffffff16610ffc826107bc565b73ffffffffffffffffffffffffffffffffffffffff1614611052576040517f08c379a000000000000000000000000000000000000000000000000000000000815260040161104990612797565b60405180910390fd5b600073ffffffffffffffffffffffffffffffffffffffff168273ffffffffffffffffffffffffffffffffffffffff16036110c1576040517f08c379a00000000000000000000000000000000000000000000000000000000081526004016110b890612829565b60405180910390fd5b6110ce838383600161181d565b8273ffffffffffffffffffffffffffffffffffffffff166110ee826107bc565b73ffffffffffffffffffffffffffffffffffffffff1614611144576040517f08c379a000000000000000000000000000000000000000000000000000000000815260040161113b90612797565b60405180910390fd5b6004600082815260200190815260200160002060006101000a81549073ffffffffffffffffffffffffffffffffffffffff02191690556001600360008573ffffffffffffffffffffffffffffffffffffffff1673ffffffffffffffffffffffffffffffffffffffff168152602001908152602001600020600082825403925050819055506001600360008473ffffffffffffffffffffffffffffffffffffffff1673ffffffffffffffffffffffffffffffffffffffff16815260200190815260200160002060008282540192505081905550816002600083815260200190815260200160002060006101000a81548173ffffffffffffffffffffffffffffffffffffffff021916908373ffffffffffffffffffffffffffffffffffffffff160217905550808273ffffffffffffffffffffffffffffffffffffffff168473ffffffffffffffffffffffffffffffffffffffff167fddf252ad1be2c89b69c2b068fc378daa952ba7f163c4a11628f55a4df523b3ef60405160405180910390a46112d08383836001611823565b505050565b60006002600083815260200190815260200160002060009054906101000a900473ffffffffffffffffffffffffffffffffffffffff169050919050565b8173ffffffffffffffffffffffffffffffffffffffff168373ffffffffffffffffffffffffffffffffffffffff1603611380576040517f08c379a000000000000000000000000000000000000000000000000000000000815260040161137790612895565b60405180910390fd5b80600560008573ffffffffffffffffffffffffffffffffffffffff1673ffffffffffffffffffffffffffffffffffffffff16815260200190815260200160002060008473ffffffffffffffffffffffffffffffffffffffff1673ffffffffffffffffffffffffffffffffffffffff16815260200190815260200160002060006101000a81548160ff0219169083151502179055508173ffffffffffffffffffffffffffffffffffffffff168373ffffffffffffffffffffffffffffffffffffffff167f17307eab39ab6107e8899845ad3d59bd9653f200f220920489ca2b5937696c31836040516114719190611bda565b60405180910390a3505050565b611489848484610fdc565b61149584848484611829565b6114d4576040517f08c379a00000000000000000000000000000000000000000000000000000000081526004016114cb90612927565b60405180910390fd5b50505050565b600073ffffffffffffffffffffffffffffffffffffffff168273ffffffffffffffffffffffffffffffffffffffff1603611549576040517f08c379a000000000000000000000000000000000000000000000000000000000815260040161154090612993565b60405180910390fd5b611552816117dc565b15611592576040517f08c379a0000000000000000000000000000000000000000000000000000000008152600401611589906129ff565b60405180910390fd5b6115a060008383600161181d565b6115a9816117dc565b156115e9576040517f08c379a00000000000000000000000000000000000000000000000000000000081526004016115e0906129ff565b60405180910390fd5b6001600360008473ffffffffffffffffffffffffffffffffffffffff1673ffffffffffffffffffffffffffffffffffffffff16815260200190815260200160002060008282540192505081905550816002600083815260200190815260200160002060006101000a81548173ffffffffffffffffffffffffffffffffffffffff021916908373ffffffffffffffffffffffffffffffffffffffff160217905550808273ffffffffffffffffffffffffffffffffffffffff16600073ffffffffffffffffffffffffffffffffffffffff167fddf252ad1be2c89b69c2b068fc378daa952ba7f163c4a11628f55a4df523b3ef60405160405180910390a46116f3600083836001611823565b5050565b606060405180602001604052806000815250905090565b60606000600161171d846119b0565b01905060008167ffffffffffffffff81111561173c5761173b611ef2565b5b6040519080825280601f01601f19166020018201604052801561176e5781602001600182028036833780820191505090505b509050600082602001820190505b6001156117d1578080600190039150507f3031323334353637383961626364656600000000000000000000000000000000600a86061a8153600a85816117c5576117c4612a1f565b5b0494506000850361177c575b819350505050919050565b60008073ffffffffffffffffffffffffffffffffffffffff166117fe836112d5565b73ffffffffffffffffffffffffffffffffffffffff1614159050919050565b50505050565b50505050565b600061184a8473ffffffffffffffffffffffffffffffffffffffff16611b03565b156119a3578373ffffffffffffffffffffffffffffffffffffffff1663150b7a02611873610e86565b8786866040518563ffffffff1660e01b81526004016118959493929190612aa3565b6020604051808303816000875af19250505080156118d157506040513d601f19601f820116820180604052508101906118ce9190612b04565b60015b611953573d8060008114611901576040519150601f19603f3d011682016040523d82523d6000602084013e611906565b606091505b50600081510361194b576040517f08c379a000000000000000000000000000000000000000000000000000000000815260040161194290612927565b60405180910390fd5b805181602001fd5b63150b7a0260e01b7bffffffffffffffffffffffffffffffffffffffffffffffffffffffff1916817bffffffffffffffffffffffffffffffffffffffffffffffffffffffff1916149150506119a8565b600190505b949350505050565b600080600090507a184f03e93ff9f4daa797ed6e38ed64bf6a1f0100000000000000008310611a0e577a184f03e93ff9f4daa797ed6e38ed64bf6a1f0100000000000000008381611a0457611a03612a1f565b5b0492506040810190505b6d04ee2d6d415b85acef81000000008310611a4b576d04ee2d6d415b85acef81000000008381611a4157611a40612a1f565b5b0492506020810190505b662386f26fc100008310611a7a57662386f26fc100008381611a7057611a6f612a1f565b5b0492506010810190505b6305f5e1008310611aa3576305f5e1008381611a9957611a98612a1f565b5b0492506008810190505b6127108310611ac8576127108381611abe57611abd612a1f565b5b0492506004810190505b60648310611aeb5760648381611ae157611ae0612a1f565b5b0492506002810190505b600a8310611afa576001810190505b80915050919050565b6000808273ffffffffffffffffffffffffffffffffffffffff163b119050919050565b6000604051905090565b600080fd5b600080fd5b60007fffffffff0000000000000000000000000000000000000000000000000000000082169050919050565b611b6f81611b3a565b8114611b7a57600080fd5b50565b600081359050611b8c81611b66565b92915050565b600060208284031215611ba857611ba7611b30565b5b6000611bb684828501611b7d565b91505092915050565b60008115159050919050565b611bd481611bbf565b82525050565b6000602082019050611bef6000830184611bcb565b92915050565b600073ffffffffffffffffffffffffffffffffffffffff82169050919050565b6000611c2082611bf5565b9050919050565b611c3081611c15565b8114611c3b57600080fd5b50565b600081359050611c4d81611c27565b92915050565b600060208284031215611c6957611c68611b30565b5b6000611c7784828501611c3e565b91505092915050565b600081519050919050565b600082825260208201905092915050565b60005b83811015611cba578082015181840152602081019050611c9f565b60008484015250505050565b6000601f19601f8301169050919050565b6000611ce282611c80565b611cec8185611c8b565b9350611cfc818560208601611c9c565b611d0581611cc6565b840191505092915050565b60006020820190508181036000830152611d2a8184611cd7565b905092915050565b6000819050919050565b611d4581611d32565b8114611d5057600080fd5b50565b600081359050611d6281611d3c565b92915050565b600060208284031215611d7e57611d7d611b30565b5b6000611d8c84828501611d53565b91505092915050565b611d9e81611c15565b82525050565b6000602082019050611db96000830184611d95565b92915050565b60008060408385031215611dd657611dd5611b30565b5b6000611de485828601611c3e565b9250506020611df585828601611d53565b9150509250929050565b600080600060608486031215611e1857611e17611b30565b5b6000611e2686828701611c3e565b9350506020611e3786828701611c3e565b9250506040611e4886828701611d53565b9150509250925092565b611e5b81611d32565b82525050565b6000602082019050611e766000830184611e52565b92915050565b611e8581611bbf565b8114611e9057600080fd5b50565b600081359050611ea281611e7c565b92915050565b60008060408385031215611ebf57611ebe611b30565b5b6000611ecd85828601611c3e565b9250506020611ede85828601611e93565b9150509250929050565b600080fd5b600080fd5b7f4e487b7100000000000000000000000000000000000000000000000000000000600052604160045260246000fd5b611f2a82611cc6565b810181811067ffffffffffffffff82111715611f4957611f48611ef2565b5b80604052505050565b6000611f5c611b26565b9050611f688282611f21565b919050565b600067ffffffffffffffff821115611f8857611f87611ef2565b5b611f9182611cc6565b9050602081019050919050565b82818337600083830152505050565b6000611fc0611fbb84611f6d565b611f52565b905082815260208101848484011115611fdc57611fdb611eed565b5b611fe7848285611f9e565b509392505050565b600082601f83011261200457612003611ee8565b5b8135612014848260208601611fad565b91505092915050565b6000806000806080858703121561203757612036611b30565b5b600061204587828801611c3e565b945050602061205687828801611c3e565b935050604061206787828801611d53565b925050606085013567ffffffffffffffff81111561208857612087611b35565b5b61209487828801611fef565b91505092959194509250565b600080604083850312156120b7576120b6611b30565b5b60006120c585828601611c3e565b92505060206120d685828601611c3e565b9150509250929050565b7f4e487b7100000000000000000000000000000000000000000000000000000000600052602260045260246000fd5b6000600282049050600182168061212757607f821691505b60208210810361213a576121396120e0565b5b50919050565b7f4552433732313a20617070726f76616c20746f2063757272656e74206f776e6560008201527f7200000000000000000000000000000000000000000000000000000000000000602082015250565b600061219c602183611c8b565b91506121a782612140565b604082019050919050565b600060208201905081810360008301526121cb8161218f565b9050919050565b7f4552433732313a20617070726f76652063616c6c6572206973206e6f7420746f60008201527f6b656e206f776e6572206f7220617070726f76656420666f7220616c6c000000602082015250565b600061222e603d83611c8b565b9150612239826121d2565b604082019050919050565b6000602082019050818103600083015261225d81612221565b9050919050565b7f4552433732313a2063616c6c6572206973206e6f7420746f6b656e206f776e6560008201527f72206f7220617070726f76656400000000000000000000000000000000000000602082015250565b60006122c0602d83611c8b565b91506122cb82612264565b604082019050919050565b600060208201905081810360008301526122ef816122b3565b9050919050565b7f4552433732313a20696e76616c696420746f6b656e2049440000000000000000600082015250565b600061232c601883611c8b565b9150612337826122f6565b602082019050919050565b6000602082019050818103600083015261235b8161231f565b9050919050565b7f4552433732313a2061646472657373207a65726f206973206e6f74206120766160008201527f6c6964206f776e65720000000000000000000000000000000000000000000000602082015250565b60006123be602983611c8b565b91506123c982612362565b604082019050919050565b600060208201905081810360008301526123ed816123b1565b9050919050565b7f4e6f7420612076616c6964206164647265737300000000000000000000000000600082015250565b600061242a601383611c8b565b9150612435826123f4565b602082019050919050565b600060208201905081810360008301526124598161241d565b9050919050565b7f7061737320616c72656164792069737365640000000000000000000000000000600082015250565b6000612496601283611c8b565b91506124a182612460565b602082019050919050565b600060208201905081810360008301526124c581612489565b9050919050565b7f596f752068617665206e6f206e616b616d69676f73204e465473000000000000600082015250565b6000612502601a83611c8b565b915061250d826124cc565b602082019050919050565b60006020820190508181036000830152612531816124f5565b9050919050565b7f4e487b7100000000000000000000000000000000000000000000000000000000600052601160045260246000fd5b600061ffff82169050919050565b600061258082612567565b915061ffff820361259457612593612538565b5b600182019050919050565b600081905092915050565b60006125b582611c80565b6125bf818561259f565b93506125cf818560208601611c9c565b80840191505092915050565b60006125e782856125aa565b91506125f382846125aa565b91508190509392505050565b600067ffffffffffffffff82111561261a57612619611ef2565b5b602082029050602081019050919050565b600080fd5b60008151905061263f81611d3c565b92915050565b6000612658612653846125ff565b611f52565b9050808382526020820190506020840283018581111561267b5761267a61262b565b5b835b818110156126a457806126908882612630565b84526020840193505060208101905061267d565b5050509392505050565b600082601f8301126126c3576126c2611ee8565b5b81516126d3848260208601612645565b91505092915050565b6000602082840312156126f2576126f1611b30565b5b600082015167ffffffffffffffff8111156127105761270f611b35565b5b61271c848285016126ae565b91505092915050565b7f4552433732313a207472616e736665722066726f6d20696e636f72726563742060008201527f6f776e6572000000000000000000000000000000000000000000000000000000602082015250565b6000612781602583611c8b565b915061278c82612725565b604082019050919050565b600060208201905081810360008301526127b081612774565b9050919050565b7f4552433732313a207472616e7366657220746f20746865207a65726f2061646460008201527f7265737300000000000000000000000000000000000000000000000000000000602082015250565b6000612813602483611c8b565b915061281e826127b7565b604082019050919050565b6000602082019050818103600083015261284281612806565b9050919050565b7f4552433732313a20617070726f766520746f2063616c6c657200000000000000600082015250565b600061287f601983611c8b565b915061288a82612849565b602082019050919050565b600060208201905081810360008301526128ae81612872565b9050919050565b7f4552433732313a207472616e7366657220746f206e6f6e20455243373231526560008201527f63656976657220696d706c656d656e7465720000000000000000000000000000602082015250565b6000612911603283611c8b565b915061291c826128b5565b604082019050919050565b6000602082019050818103600083015261294081612904565b9050919050565b7f4552433732313a206d696e7420746f20746865207a65726f2061646472657373600082015250565b600061297d602083611c8b565b915061298882612947565b602082019050919050565b600060208201905081810360008301526129ac81612970565b9050919050565b7f4552433732313a20746f6b656e20616c7265616479206d696e74656400000000600082015250565b60006129e9601c83611c8b565b91506129f4826129b3565b602082019050919050565b60006020820190508181036000830152612a18816129dc565b9050919050565b7f4e487b7100000000000000000000000000000000000000000000000000000000600052601260045260246000fd5b600081519050919050565b600082825260208201905092915050565b6000612a7582612a4e565b612a7f8185612a59565b9350612a8f818560208601611c9c565b612a9881611cc6565b840191505092915050565b6000608082019050612ab86000830187611d95565b612ac56020830186611d95565b612ad26040830185611e52565b8181036060830152612ae48184612a6a565b905095945050505050565b600081519050612afe81611b66565b92915050565b600060208284031215612b1a57612b19611b30565b5b6000612b2884828501612aef565b9150509291505056fea2646970667358221220159a409cc5ba53880158da7a55acb4a7cab5e077dc3f98a332b6e6dbadf0f10e64736f6c63430008120033",
  "linkReferences": {},
  "deployedLinkReferences": {}
}