{
  "_format": "hh-sol-artifact-1",
  "contractName": "NewPass",
  "sourceName": "contracts/Newpass.sol",
  "abi": [
    {
      "inputs": [],
      "stateMutability": "nonpayable",
      "type": "constructor"
    },
    {
      "anonymous": false,
      "inputs": [
        {
          "indexed": true,
          "internalType": "address",
          "name": "owner",
          "type": "address"
        },
        {
          "indexed": true,
          "internalType": "address",
          "name": "approved",
          "type": "address"
        },
        {
          "indexed": true,
          "internalType": "uint256",
          "name": "tokenId",
          "type": "uint256"
        }
      ],
      "name": "Approval",
      "type": "event"
    },
    {
      "anonymous": false,
      "inputs": [
        {
          "indexed": true,
          "internalType": "address",
          "name": "owner",
          "type": "address"
        },
        {
          "indexed": true,
          "internalType": "address",
          "name": "operator",
          "type": "address"
        },
        {
          "indexed": false,
          "internalType": "bool",
          "name": "approved",
          "type": "bool"
        }
      ],
      "name": "ApprovalForAll",
      "type": "event"
    },
    {
      "anonymous": false,
      "inputs": [
        {
          "indexed": true,
          "internalType": "address",
          "name": "from",
          "type": "address"
        },
        {
          "indexed": true,
          "internalType": "address",
          "name": "to",
          "type": "address"
        },
        {
          "indexed": true,
          "internalType": "uint256",
          "name": "tokenId",
          "type": "uint256"
        }
      ],
      "name": "Transfer",
      "type": "event"
    },
    {
      "inputs": [],
      "name": "NakamigosContractAddress",
      "outputs": [
        {
          "internalType": "address",
          "name": "",
          "type": "address"
        }
      ],
      "stateMutability": "view",
      "type": "function"
    },
    {
      "inputs": [
        {
          "internalType": "address",
          "name": "to",
          "type": "address"
        },
        {
          "internalType": "uint256",
          "name": "tokenId",
          "type": "uint256"
        }
      ],
      "name": "approve",
      "outputs": [],
      "stateMutability": "nonpayable",
      "type": "function"
    },
    {
      "inputs": [
        {
          "internalType": "address",
          "name": "owner",
          "type": "address"
        }
      ],
      "name": "balanceOf",
      "outputs": [
        {
          "internalType": "uint256",
          "name": "",
          "type": "uint256"
        }
      ],
      "stateMutability": "view",
      "type": "function"
    },
    {
      "inputs": [
        {
          "internalType": "uint256",
          "name": "tokenId",
          "type": "uint256"
        }
      ],
      "name": "getApproved",
      "outputs": [
        {
          "internalType": "address",
          "name": "",
          "type": "address"
        }
      ],
      "stateMutability": "view",
      "type": "function"
    },
    {
      "inputs": [],
      "name": "holdsNakaNFTs",
      "outputs": [
        {
          "internalType": "bool",
          "name": "",
          "type": "bool"
        }
      ],
      "stateMutability": "view",
      "type": "function"
    },
    {
      "inputs": [
        {
          "internalType": "address",
          "name": "owner",
          "type": "address"
        },
        {
          "internalType": "address",
          "name": "operator",
          "type": "address"
        }
      ],
      "name": "isApprovedForAll",
      "outputs": [
        {
          "internalType": "bool",
          "name": "",
          "type": "bool"
        }
      ],
      "stateMutability": "view",
      "type": "function"
    },
    {
      "inputs": [],
      "name": "name",
      "outputs": [
        {
          "internalType": "string",
          "name": "",
          "type": "string"
        }
      ],
      "stateMutability": "view",
      "type": "function"
    },
    {
      "inputs": [
        {
          "internalType": "uint256",
          "name": "tokenId",
          "type": "uint256"
        }
      ],
      "name": "ownerOf",
      "outputs": [
        {
          "internalType": "address",
          "name": "",
          "type": "address"
        }
      ],
      "stateMutability": "view",
      "type": "function"
    },
    {
      "inputs": [
        {
          "internalType": "address",
          "name": "_to",
          "type": "address"
        }
      ],
      "name": "passIssedToAdress",
      "outputs": [
        {
          "internalType": "bool",
          "name": "",
          "type": "bool"
        }
      ],
      "stateMutability": "view",
      "type": "function"
    },
    {
      "inputs": [
        {
          "internalType": "address",
          "name": "",
          "type": "address"
        }
      ],
      "name": "passIssued",
      "outputs": [
        {
          "internalType": "bool",
          "name": "",
          "type": "bool"
        }
      ],
      "stateMutability": "view",
      "type": "function"
    },
    {
      "inputs": [
        {
          "internalType": "address",
          "name": "from",
          "type": "address"
        },
        {
          "internalType": "address",
          "name": "to",
          "type": "address"
        },
        {
          "internalType": "uint256",
          "name": "tokenId",
          "type": "uint256"
        }
      ],
      "name": "safeTransferFrom",
      "outputs": [],
      "stateMutability": "nonpayable",
      "type": "function"
    },
    {
      "inputs": [
        {
          "internalType": "address",
          "name": "from",
          "type": "address"
        },
        {
          "internalType": "address",
          "name": "to",
          "type": "address"
        },
        {
          "internalType": "uint256",
          "name": "tokenId",
          "type": "uint256"
        },
        {
          "internalType": "bytes",
          "name": "data",
          "type": "bytes"
        }
      ],
      "name": "safeTransferFrom",
      "outputs": [],
      "stateMutability": "nonpayable",
      "type": "function"
    },
    {
      "inputs": [
        {
          "internalType": "address",
          "name": "operator",
          "type": "address"
        },
        {
          "internalType": "bool",
          "name": "approved",
          "type": "bool"
        }
      ],
      "name": "setApprovalForAll",
      "outputs": [],
      "stateMutability": "nonpayable",
      "type": "function"
    },
    {
      "inputs": [
        {
          "internalType": "bytes4",
          "name": "interfaceId",
          "type": "bytes4"
        }
      ],
      "name": "supportsInterface",
      "outputs": [
        {
          "internalType": "bool",
          "name": "",
          "type": "bool"
        }
      ],
      "stateMutability": "view",
      "type": "function"
    },
    {
      "inputs": [],
      "name": "symbol",
      "outputs": [
        {
          "internalType": "string",
          "name": "",
          "type": "string"
        }
      ],
      "stateMutability": "view",
      "type": "function"
    },
    {
      "inputs": [
        {
          "internalType": "uint256",
          "name": "tokenId",
          "type": "uint256"
        }
      ],
      "name": "tokenURI",
      "outputs": [
        {
          "internalType": "string",
          "name": "",
          "type": "string"
        }
      ],
      "stateMutability": "view",
      "type": "function"
    },
    {
      "inputs": [
        {
          "internalType": "address",
          "name": "from",
          "type": "address"
        },
        {
          "internalType": "address",
          "name": "to",
          "type": "address"
        },
        {
          "internalType": "uint256",
          "name": "tokenId",
          "type": "uint256"
        }
      ],
      "name": "transferFrom",
      "outputs": [],
      "stateMutability": "nonpayable",
      "type": "function"
    }
  ],
  "bytecode": "0x60806040526000600660006101000a81548161ffff021916908361ffff16021790555073d774557b647330c91bf44cfeab205095f7e6c367600660026101000a81548173ffffffffffffffffffffffffffffffffffffffff021916908373ffffffffffffffffffffffffffffffffffffffff1602179055503480156200008457600080fd5b506040518060400160405280600d81526020017f4578616d706c65546f6b656e73000000000000000000000000000000000000008152506040518060400160405280600381526020017f4558740000000000000000000000000000000000000000000000000000000000815250816000908162000102919062000397565b50806001908162000114919062000397565b5050506200047e565b600081519050919050565b7f4e487b7100000000000000000000000000000000000000000000000000000000600052604160045260246000fd5b7f4e487b7100000000000000000000000000000000000000000000000000000000600052602260045260246000fd5b600060028204905060018216806200019f57607f821691505b602082108103620001b557620001b462000157565b5b50919050565b60008190508160005260206000209050919050565b60006020601f8301049050919050565b600082821b905092915050565b6000600883026200021f7fffffffffffffffffffffffffffffffffffffffffffffffffffffffffffffffff82620001e0565b6200022b8683620001e0565b95508019841693508086168417925050509392505050565b6000819050919050565b6000819050919050565b600062000278620002726200026c8462000243565b6200024d565b62000243565b9050919050565b6000819050919050565b620002948362000257565b620002ac620002a3826200027f565b848454620001ed565b825550505050565b600090565b620002c3620002b4565b620002d081848462000289565b505050565b5b81811015620002f857620002ec600082620002b9565b600181019050620002d6565b5050565b601f82111562000347576200031181620001bb565b6200031c84620001d0565b810160208510156200032c578190505b620003446200033b85620001d0565b830182620002d5565b50505b505050565b600082821c905092915050565b60006200036c600019846008026200034c565b1980831691505092915050565b600062000387838362000359565b9150826002028217905092915050565b620003a2826200011d565b67ffffffffffffffff811115620003be57620003bd62000128565b5b620003ca825462000186565b620003d7828285620002fc565b600060209050601f8311600181146200040f5760008415620003fa578287015190505b62000406858262000379565b86555062000476565b601f1984166200041f86620001bb565b60005b82811015620004495784890151825560018201915060208501945060208101905062000422565b8683101562000469578489015162000465601f89168262000359565b8355505b6001600288020188555050505b505050505050565b612497806200048e6000396000f3fe608060405234801561001057600080fd5b506004361061010b5760003560e01c806342842e0e116100a2578063a22cb46511610071578063a22cb465146102de578063b88d4fde146102fa578063c87b56dd14610316578063e985e9c514610346578063f15a14c4146103765761010b565b806342842e0e146102445780636352211e1461026057806370a082311461029057806395d89b41146102c05761010b565b8063095ea7b3116100de578063095ea7b3146101be57806319165611146101da5780631a21a75a146101f857806323b872dd146102285761010b565b806301ffc9a71461011057806306e882af1461014057806306fdde0314610170578063081812fc1461018e575b600080fd5b61012a60048036038101906101259190611745565b610394565b604051610137919061178d565b60405180910390f35b61015a60048036038101906101559190611806565b610476565b604051610167919061178d565b60405180910390f35b610178610496565b60405161018591906118c3565b60405180910390f35b6101a860048036038101906101a3919061191b565b610528565b6040516101b59190611957565b60405180910390f35b6101d860048036038101906101d39190611972565b61056e565b005b6101e2610685565b6040516101ef9190611957565b60405180910390f35b610212600480360381019061020d9190611806565b6106ab565b60405161021f919061178d565b60405180910390f35b610242600480360381019061023d91906119b2565b610701565b005b61025e600480360381019061025991906119b2565b610761565b005b61027a6004803603810190610275919061191b565b610781565b6040516102879190611957565b60405180910390f35b6102aa60048036038101906102a59190611806565b610807565b6040516102b79190611a14565b60405180910390f35b6102c86108be565b6040516102d591906118c3565b60405180910390f35b6102f860048036038101906102f39190611a5b565b610950565b005b610314600480360381019061030f9190611bd0565b610966565b005b610330600480360381019061032b919061191b565b6109c8565b60405161033d91906118c3565b60405180910390f35b610360600480360381019061035b9190611c53565b610a30565b60405161036d919061178d565b60405180910390f35b61037e610ac4565b60405161038b919061178d565b60405180910390f35b60007f80ac58cd000000000000000000000000000000000000000000000000000000007bffffffffffffffffffffffffffffffffffffffffffffffffffffffff1916827bffffffffffffffffffffffffffffffffffffffffffffffffffffffff1916148061045f57507f5b5e139f000000000000000000000000000000000000000000000000000000007bffffffffffffffffffffffffffffffffffffffffffffffffffffffff1916827bffffffffffffffffffffffffffffffffffffffffffffffffffffffff1916145b8061046f575061046e82610ba1565b5b9050919050565b60076020528060005260406000206000915054906101000a900460ff1681565b6060600080546104a590611cc2565b80601f01602080910402602001604051908101604052809291908181526020018280546104d190611cc2565b801561051e5780601f106104f35761010080835404028352916020019161051e565b820191906000526020600020905b81548152906001019060200180831161050157829003601f168201915b5050505050905090565b600061053382610c0b565b6004600083815260200190815260200160002060009054906101000a900473ffffffffffffffffffffffffffffffffffffffff169050919050565b600061057982610781565b90508073ffffffffffffffffffffffffffffffffffffffff168373ffffffffffffffffffffffffffffffffffffffff16036105e9576040517f08c379a00000000000000000000000000000000000000000000000000000000081526004016105e090611d65565b60405180910390fd5b8073ffffffffffffffffffffffffffffffffffffffff16610608610c56565b73ffffffffffffffffffffffffffffffffffffffff161480610637575061063681610631610c56565b610a30565b5b610676576040517f08c379a000000000000000000000000000000000000000000000000000000000815260040161066d90611df7565b60405180910390fd5b6106808383610c5e565b505050565b600660029054906101000a900473ffffffffffffffffffffffffffffffffffffffff1681565b6000600760008373ffffffffffffffffffffffffffffffffffffffff1673ffffffffffffffffffffffffffffffffffffffff16815260200190815260200160002060009054906101000a900460ff169050919050565b61071261070c610c56565b82610d17565b610751576040517f08c379a000000000000000000000000000000000000000000000000000000000815260040161074890611e89565b60405180910390fd5b61075c838383610dac565b505050565b61077c83838360405180602001604052806000815250610966565b505050565b60008061078d836110a5565b9050600073ffffffffffffffffffffffffffffffffffffffff168173ffffffffffffffffffffffffffffffffffffffff16036107fe576040517f08c379a00000000000000000000000000000000000000000000000000000000081526004016107f590611ef5565b60405180910390fd5b80915050919050565b60008073ffffffffffffffffffffffffffffffffffffffff168273ffffffffffffffffffffffffffffffffffffffff1603610877576040517f08c379a000000000000000000000000000000000000000000000000000000000815260040161086e90611f87565b60405180910390fd5b600360008373ffffffffffffffffffffffffffffffffffffffff1673ffffffffffffffffffffffffffffffffffffffff168152602001908152602001600020549050919050565b6060600180546108cd90611cc2565b80601f01602080910402602001604051908101604052809291908181526020018280546108f990611cc2565b80156109465780601f1061091b57610100808354040283529160200191610946565b820191906000526020600020905b81548152906001019060200180831161092957829003601f168201915b5050505050905090565b61096261095b610c56565b83836110e2565b5050565b610977610971610c56565b83610d17565b6109b6576040517f08c379a00000000000000000000000000000000000000000000000000000000081526004016109ad90611e89565b60405180910390fd5b6109c28484848461124e565b50505050565b60606109d382610c0b565b60006109dd6112aa565b905060008151116109fd5760405180602001604052806000815250610a28565b80610a07846112c1565b604051602001610a18929190611fe3565b6040516020818303038152906040525b915050919050565b6000600560008473ffffffffffffffffffffffffffffffffffffffff1673ffffffffffffffffffffffffffffffffffffffff16815260200190815260200160002060008373ffffffffffffffffffffffffffffffffffffffff1673ffffffffffffffffffffffffffffffffffffffff16815260200190815260200160002060009054906101000a900460ff16905092915050565b60008073c2d118a11cce453ac65310c80286594228bbaf1d90506000600660029054906101000a900473ffffffffffffffffffffffffffffffffffffffff1673ffffffffffffffffffffffffffffffffffffffff16638462151c836040518263ffffffff1660e01b8152600401610b3b9190611957565b600060405180830381865afa158015610b58573d6000803e3d6000fd5b505050506040513d6000823e3d601f19601f82011682018060405250810190610b8191906120e4565b90506001815110610b9757600192505050610b9e565b6000925050505b90565b60007f01ffc9a7000000000000000000000000000000000000000000000000000000007bffffffffffffffffffffffffffffffffffffffffffffffffffffffff1916827bffffffffffffffffffffffffffffffffffffffffffffffffffffffff1916149050919050565b610c148161138f565b610c53576040517f08c379a0000000000000000000000000000000000000000000000000000000008152600401610c4a90611ef5565b60405180910390fd5b50565b600033905090565b816004600083815260200190815260200160002060006101000a81548173ffffffffffffffffffffffffffffffffffffffff021916908373ffffffffffffffffffffffffffffffffffffffff160217905550808273ffffffffffffffffffffffffffffffffffffffff16610cd183610781565b73ffffffffffffffffffffffffffffffffffffffff167f8c5be1e5ebec7d5bd14f71427d1e84f3dd0314c0f7b2291e5b200ac8c7c3b92560405160405180910390a45050565b600080610d2383610781565b90508073ffffffffffffffffffffffffffffffffffffffff168473ffffffffffffffffffffffffffffffffffffffff161480610d655750610d648185610a30565b5b80610da357508373ffffffffffffffffffffffffffffffffffffffff16610d8b84610528565b73ffffffffffffffffffffffffffffffffffffffff16145b91505092915050565b8273ffffffffffffffffffffffffffffffffffffffff16610dcc82610781565b73ffffffffffffffffffffffffffffffffffffffff1614610e22576040517f08c379a0000000000000000000000000000000000000000000000000000000008152600401610e199061219f565b60405180910390fd5b600073ffffffffffffffffffffffffffffffffffffffff168273ffffffffffffffffffffffffffffffffffffffff1603610e91576040517f08c379a0000000000000000000000000000000000000000000000000000000008152600401610e8890612231565b60405180910390fd5b610e9e83838360016113d0565b8273ffffffffffffffffffffffffffffffffffffffff16610ebe82610781565b73ffffffffffffffffffffffffffffffffffffffff1614610f14576040517f08c379a0000000000000000000000000000000000000000000000000000000008152600401610f0b9061219f565b60405180910390fd5b6004600082815260200190815260200160002060006101000a81549073ffffffffffffffffffffffffffffffffffffffff02191690556001600360008573ffffffffffffffffffffffffffffffffffffffff1673ffffffffffffffffffffffffffffffffffffffff168152602001908152602001600020600082825403925050819055506001600360008473ffffffffffffffffffffffffffffffffffffffff1673ffffffffffffffffffffffffffffffffffffffff16815260200190815260200160002060008282540192505081905550816002600083815260200190815260200160002060006101000a81548173ffffffffffffffffffffffffffffffffffffffff021916908373ffffffffffffffffffffffffffffffffffffffff160217905550808273ffffffffffffffffffffffffffffffffffffffff168473ffffffffffffffffffffffffffffffffffffffff167fddf252ad1be2c89b69c2b068fc378daa952ba7f163c4a11628f55a4df523b3ef60405160405180910390a46110a083838360016113d6565b505050565b60006002600083815260200190815260200160002060009054906101000a900473ffffffffffffffffffffffffffffffffffffffff169050919050565b8173ffffffffffffffffffffffffffffffffffffffff168373ffffffffffffffffffffffffffffffffffffffff1603611150576040517f08c379a00000000000000000000000000000000000000000000000000000000081526004016111479061229d565b60405180910390fd5b80600560008573ffffffffffffffffffffffffffffffffffffffff1673ffffffffffffffffffffffffffffffffffffffff16815260200190815260200160002060008473ffffffffffffffffffffffffffffffffffffffff1673ffffffffffffffffffffffffffffffffffffffff16815260200190815260200160002060006101000a81548160ff0219169083151502179055508173ffffffffffffffffffffffffffffffffffffffff168373ffffffffffffffffffffffffffffffffffffffff167f17307eab39ab6107e8899845ad3d59bd9653f200f220920489ca2b5937696c3183604051611241919061178d565b60405180910390a3505050565b611259848484610dac565b611265848484846113dc565b6112a4576040517f08c379a000000000000000000000000000000000000000000000000000000000815260040161129b9061232f565b60405180910390fd5b50505050565b606060405180602001604052806000815250905090565b6060600060016112d084611563565b01905060008167ffffffffffffffff8111156112ef576112ee611aa5565b5b6040519080825280601f01601f1916602001820160405280156113215781602001600182028036833780820191505090505b509050600082602001820190505b600115611384578080600190039150507f3031323334353637383961626364656600000000000000000000000000000000600a86061a8153600a85816113785761137761234f565b5b0494506000850361132f575b819350505050919050565b60008073ffffffffffffffffffffffffffffffffffffffff166113b1836110a5565b73ffffffffffffffffffffffffffffffffffffffff1614159050919050565b50505050565b50505050565b60006113fd8473ffffffffffffffffffffffffffffffffffffffff166116b6565b15611556578373ffffffffffffffffffffffffffffffffffffffff1663150b7a02611426610c56565b8786866040518563ffffffff1660e01b815260040161144894939291906123d3565b6020604051808303816000875af192505050801561148457506040513d601f19601f820116820180604052508101906114819190612434565b60015b611506573d80600081146114b4576040519150601f19603f3d011682016040523d82523d6000602084013e6114b9565b606091505b5060008151036114fe576040517f08c379a00000000000000000000000000000000000000000000000000000000081526004016114f59061232f565b60405180910390fd5b805181602001fd5b63150b7a0260e01b7bffffffffffffffffffffffffffffffffffffffffffffffffffffffff1916817bffffffffffffffffffffffffffffffffffffffffffffffffffffffff19161491505061155b565b600190505b949350505050565b600080600090507a184f03e93ff9f4daa797ed6e38ed64bf6a1f01000000000000000083106115c1577a184f03e93ff9f4daa797ed6e38ed64bf6a1f01000000000000000083816115b7576115b661234f565b5b0492506040810190505b6d04ee2d6d415b85acef810000000083106115fe576d04ee2d6d415b85acef810000000083816115f4576115f361234f565b5b0492506020810190505b662386f26fc10000831061162d57662386f26fc1000083816116235761162261234f565b5b0492506010810190505b6305f5e1008310611656576305f5e100838161164c5761164b61234f565b5b0492506008810190505b612710831061167b5761271083816116715761167061234f565b5b0492506004810190505b6064831061169e57606483816116945761169361234f565b5b0492506002810190505b600a83106116ad576001810190505b80915050919050565b6000808273ffffffffffffffffffffffffffffffffffffffff163b119050919050565b6000604051905090565b600080fd5b600080fd5b60007fffffffff0000000000000000000000000000000000000000000000000000000082169050919050565b611722816116ed565b811461172d57600080fd5b50565b60008135905061173f81611719565b92915050565b60006020828403121561175b5761175a6116e3565b5b600061176984828501611730565b91505092915050565b60008115159050919050565b61178781611772565b82525050565b60006020820190506117a2600083018461177e565b92915050565b600073ffffffffffffffffffffffffffffffffffffffff82169050919050565b60006117d3826117a8565b9050919050565b6117e3816117c8565b81146117ee57600080fd5b50565b600081359050611800816117da565b92915050565b60006020828403121561181c5761181b6116e3565b5b600061182a848285016117f1565b91505092915050565b600081519050919050565b600082825260208201905092915050565b60005b8381101561186d578082015181840152602081019050611852565b60008484015250505050565b6000601f19601f8301169050919050565b600061189582611833565b61189f818561183e565b93506118af81856020860161184f565b6118b881611879565b840191505092915050565b600060208201905081810360008301526118dd818461188a565b905092915050565b6000819050919050565b6118f8816118e5565b811461190357600080fd5b50565b600081359050611915816118ef565b92915050565b600060208284031215611931576119306116e3565b5b600061193f84828501611906565b91505092915050565b611951816117c8565b82525050565b600060208201905061196c6000830184611948565b92915050565b60008060408385031215611989576119886116e3565b5b6000611997858286016117f1565b92505060206119a885828601611906565b9150509250929050565b6000806000606084860312156119cb576119ca6116e3565b5b60006119d9868287016117f1565b93505060206119ea868287016117f1565b92505060406119fb86828701611906565b9150509250925092565b611a0e816118e5565b82525050565b6000602082019050611a296000830184611a05565b92915050565b611a3881611772565b8114611a4357600080fd5b50565b600081359050611a5581611a2f565b92915050565b60008060408385031215611a7257611a716116e3565b5b6000611a80858286016117f1565b9250506020611a9185828601611a46565b9150509250929050565b600080fd5b600080fd5b7f4e487b7100000000000000000000000000000000000000000000000000000000600052604160045260246000fd5b611add82611879565b810181811067ffffffffffffffff82111715611afc57611afb611aa5565b5b80604052505050565b6000611b0f6116d9565b9050611b1b8282611ad4565b919050565b600067ffffffffffffffff821115611b3b57611b3a611aa5565b5b611b4482611879565b9050602081019050919050565b82818337600083830152505050565b6000611b73611b6e84611b20565b611b05565b905082815260208101848484011115611b8f57611b8e611aa0565b5b611b9a848285611b51565b509392505050565b600082601f830112611bb757611bb6611a9b565b5b8135611bc7848260208601611b60565b91505092915050565b60008060008060808587031215611bea57611be96116e3565b5b6000611bf8878288016117f1565b9450506020611c09878288016117f1565b9350506040611c1a87828801611906565b925050606085013567ffffffffffffffff811115611c3b57611c3a6116e8565b5b611c4787828801611ba2565b91505092959194509250565b60008060408385031215611c6a57611c696116e3565b5b6000611c78858286016117f1565b9250506020611c89858286016117f1565b9150509250929050565b7f4e487b7100000000000000000000000000000000000000000000000000000000600052602260045260246000fd5b60006002820490506001821680611cda57607f821691505b602082108103611ced57611cec611c93565b5b50919050565b7f4552433732313a20617070726f76616c20746f2063757272656e74206f776e6560008201527f7200000000000000000000000000000000000000000000000000000000000000602082015250565b6000611d4f60218361183e565b9150611d5a82611cf3565b604082019050919050565b60006020820190508181036000830152611d7e81611d42565b9050919050565b7f4552433732313a20617070726f76652063616c6c6572206973206e6f7420746f60008201527f6b656e206f776e6572206f7220617070726f76656420666f7220616c6c000000602082015250565b6000611de1603d8361183e565b9150611dec82611d85565b604082019050919050565b60006020820190508181036000830152611e1081611dd4565b9050919050565b7f4552433732313a2063616c6c6572206973206e6f7420746f6b656e206f776e6560008201527f72206f7220617070726f76656400000000000000000000000000000000000000602082015250565b6000611e73602d8361183e565b9150611e7e82611e17565b604082019050919050565b60006020820190508181036000830152611ea281611e66565b9050919050565b7f4552433732313a20696e76616c696420746f6b656e2049440000000000000000600082015250565b6000611edf60188361183e565b9150611eea82611ea9565b602082019050919050565b60006020820190508181036000830152611f0e81611ed2565b9050919050565b7f4552433732313a2061646472657373207a65726f206973206e6f74206120766160008201527f6c6964206f776e65720000000000000000000000000000000000000000000000602082015250565b6000611f7160298361183e565b9150611f7c82611f15565b604082019050919050565b60006020820190508181036000830152611fa081611f64565b9050919050565b600081905092915050565b6000611fbd82611833565b611fc78185611fa7565b9350611fd781856020860161184f565b80840191505092915050565b6000611fef8285611fb2565b9150611ffb8284611fb2565b91508190509392505050565b600067ffffffffffffffff82111561202257612021611aa5565b5b602082029050602081019050919050565b600080fd5b600081519050612047816118ef565b92915050565b600061206061205b84612007565b611b05565b9050808382526020820190506020840283018581111561208357612082612033565b5b835b818110156120ac57806120988882612038565b845260208401935050602081019050612085565b5050509392505050565b600082601f8301126120cb576120ca611a9b565b5b81516120db84826020860161204d565b91505092915050565b6000602082840312156120fa576120f96116e3565b5b600082015167ffffffffffffffff811115612118576121176116e8565b5b612124848285016120b6565b91505092915050565b7f4552433732313a207472616e736665722066726f6d20696e636f72726563742060008201527f6f776e6572000000000000000000000000000000000000000000000000000000602082015250565b600061218960258361183e565b91506121948261212d565b604082019050919050565b600060208201905081810360008301526121b88161217c565b9050919050565b7f4552433732313a207472616e7366657220746f20746865207a65726f2061646460008201527f7265737300000000000000000000000000000000000000000000000000000000602082015250565b600061221b60248361183e565b9150612226826121bf565b604082019050919050565b6000602082019050818103600083015261224a8161220e565b9050919050565b7f4552433732313a20617070726f766520746f2063616c6c657200000000000000600082015250565b600061228760198361183e565b915061229282612251565b602082019050919050565b600060208201905081810360008301526122b68161227a565b9050919050565b7f4552433732313a207472616e7366657220746f206e6f6e20455243373231526560008201527f63656976657220696d706c656d656e7465720000000000000000000000000000602082015250565b600061231960328361183e565b9150612324826122bd565b604082019050919050565b600060208201905081810360008301526123488161230c565b9050919050565b7f4e487b7100000000000000000000000000000000000000000000000000000000600052601260045260246000fd5b600081519050919050565b600082825260208201905092915050565b60006123a58261237e565b6123af8185612389565b93506123bf81856020860161184f565b6123c881611879565b840191505092915050565b60006080820190506123e86000830187611948565b6123f56020830186611948565b6124026040830185611a05565b8181036060830152612414818461239a565b905095945050505050565b60008151905061242e81611719565b92915050565b60006020828403121561244a576124496116e3565b5b60006124588482850161241f565b9150509291505056fea2646970667358221220549996706de12a33b0687b904d581711296e1541394b10b1d2a6f7b3745489dd64736f6c63430008120033",
  "linkReferences": {},
  "deployedLinkReferences": {}
}