{
  "_format": "hh-sol-artifact-1",
  "contractName": "NewPass",
  "sourceName": "contracts/Newpass.sol",
  "abi": [
    {
      "inputs": [
        {
          "internalType": "address",
          "name": "_nakaAddress",
          "type": "address"
        }
      ],
      "stateMutability": "nonpayable",
      "type": "constructor"
    },
    {
      "anonymous": false,
      "inputs": [
        {
          "indexed": true,
          "internalType": "address",
          "name": "owner",
          "type": "address"
        },
        {
          "indexed": true,
          "internalType": "address",
          "name": "approved",
          "type": "address"
        },
        {
          "indexed": true,
          "internalType": "uint256",
          "name": "tokenId",
          "type": "uint256"
        }
      ],
      "name": "Approval",
      "type": "event"
    },
    {
      "anonymous": false,
      "inputs": [
        {
          "indexed": true,
          "internalType": "address",
          "name": "owner",
          "type": "address"
        },
        {
          "indexed": true,
          "internalType": "address",
          "name": "operator",
          "type": "address"
        },
        {
          "indexed": false,
          "internalType": "bool",
          "name": "approved",
          "type": "bool"
        }
      ],
      "name": "ApprovalForAll",
      "type": "event"
    },
    {
      "anonymous": false,
      "inputs": [
        {
          "indexed": true,
          "internalType": "address",
          "name": "from",
          "type": "address"
        },
        {
          "indexed": true,
          "internalType": "address",
          "name": "to",
          "type": "address"
        },
        {
          "indexed": true,
          "internalType": "uint256",
          "name": "tokenId",
          "type": "uint256"
        }
      ],
      "name": "Transfer",
      "type": "event"
    },
    {
      "inputs": [
        {
          "internalType": "address",
          "name": "to",
          "type": "address"
        },
        {
          "internalType": "uint256",
          "name": "tokenId",
          "type": "uint256"
        }
      ],
      "name": "approve",
      "outputs": [],
      "stateMutability": "nonpayable",
      "type": "function"
    },
    {
      "inputs": [
        {
          "internalType": "address",
          "name": "owner",
          "type": "address"
        }
      ],
      "name": "balanceOf",
      "outputs": [
        {
          "internalType": "uint256",
          "name": "",
          "type": "uint256"
        }
      ],
      "stateMutability": "view",
      "type": "function"
    },
    {
      "inputs": [
        {
          "internalType": "uint256",
          "name": "tokenId",
          "type": "uint256"
        }
      ],
      "name": "getApproved",
      "outputs": [
        {
          "internalType": "address",
          "name": "",
          "type": "address"
        }
      ],
      "stateMutability": "view",
      "type": "function"
    },
    {
      "inputs": [
        {
          "internalType": "address",
          "name": "_to",
          "type": "address"
        }
      ],
      "name": "holdsNaka",
      "outputs": [
        {
          "internalType": "bool",
          "name": "",
          "type": "bool"
        }
      ],
      "stateMutability": "view",
      "type": "function"
    },
    {
      "inputs": [
        {
          "internalType": "address",
          "name": "owner",
          "type": "address"
        },
        {
          "internalType": "address",
          "name": "operator",
          "type": "address"
        }
      ],
      "name": "isApprovedForAll",
      "outputs": [
        {
          "internalType": "bool",
          "name": "",
          "type": "bool"
        }
      ],
      "stateMutability": "view",
      "type": "function"
    },
    {
      "inputs": [],
      "name": "nakaAddress",
      "outputs": [
        {
          "internalType": "address",
          "name": "",
          "type": "address"
        }
      ],
      "stateMutability": "view",
      "type": "function"
    },
    {
      "inputs": [],
      "name": "name",
      "outputs": [
        {
          "internalType": "string",
          "name": "",
          "type": "string"
        }
      ],
      "stateMutability": "view",
      "type": "function"
    },
    {
      "inputs": [],
      "name": "newToken",
      "outputs": [
        {
          "internalType": "bool",
          "name": "",
          "type": "bool"
        }
      ],
      "stateMutability": "nonpayable",
      "type": "function"
    },
    {
      "inputs": [
        {
          "internalType": "uint256",
          "name": "tokenId",
          "type": "uint256"
        }
      ],
      "name": "ownerOf",
      "outputs": [
        {
          "internalType": "address",
          "name": "",
          "type": "address"
        }
      ],
      "stateMutability": "view",
      "type": "function"
    },
    {
      "inputs": [
        {
          "internalType": "address",
          "name": "",
          "type": "address"
        }
      ],
      "name": "passIssued",
      "outputs": [
        {
          "internalType": "bool",
          "name": "",
          "type": "bool"
        }
      ],
      "stateMutability": "view",
      "type": "function"
    },
    {
      "inputs": [
        {
          "internalType": "address",
          "name": "from",
          "type": "address"
        },
        {
          "internalType": "address",
          "name": "to",
          "type": "address"
        },
        {
          "internalType": "uint256",
          "name": "tokenId",
          "type": "uint256"
        }
      ],
      "name": "safeTransferFrom",
      "outputs": [],
      "stateMutability": "nonpayable",
      "type": "function"
    },
    {
      "inputs": [
        {
          "internalType": "address",
          "name": "from",
          "type": "address"
        },
        {
          "internalType": "address",
          "name": "to",
          "type": "address"
        },
        {
          "internalType": "uint256",
          "name": "tokenId",
          "type": "uint256"
        },
        {
          "internalType": "bytes",
          "name": "data",
          "type": "bytes"
        }
      ],
      "name": "safeTransferFrom",
      "outputs": [],
      "stateMutability": "nonpayable",
      "type": "function"
    },
    {
      "inputs": [
        {
          "internalType": "address",
          "name": "operator",
          "type": "address"
        },
        {
          "internalType": "bool",
          "name": "approved",
          "type": "bool"
        }
      ],
      "name": "setApprovalForAll",
      "outputs": [],
      "stateMutability": "nonpayable",
      "type": "function"
    },
    {
      "inputs": [
        {
          "internalType": "bytes4",
          "name": "interfaceId",
          "type": "bytes4"
        }
      ],
      "name": "supportsInterface",
      "outputs": [
        {
          "internalType": "bool",
          "name": "",
          "type": "bool"
        }
      ],
      "stateMutability": "view",
      "type": "function"
    },
    {
      "inputs": [],
      "name": "symbol",
      "outputs": [
        {
          "internalType": "string",
          "name": "",
          "type": "string"
        }
      ],
      "stateMutability": "view",
      "type": "function"
    },
    {
      "inputs": [
        {
          "internalType": "uint256",
          "name": "tokenId",
          "type": "uint256"
        }
      ],
      "name": "tokenURI",
      "outputs": [
        {
          "internalType": "string",
          "name": "",
          "type": "string"
        }
      ],
      "stateMutability": "view",
      "type": "function"
    },
    {
      "inputs": [
        {
          "internalType": "address",
          "name": "from",
          "type": "address"
        },
        {
          "internalType": "address",
          "name": "to",
          "type": "address"
        },
        {
          "internalType": "uint256",
          "name": "tokenId",
          "type": "uint256"
        }
      ],
      "name": "transferFrom",
      "outputs": [],
      "stateMutability": "nonpayable",
      "type": "function"
    }
  ],
  "bytecode": "0x60806040526000600660146101000a81548161ffff021916908361ffff1602179055503480156200002f57600080fd5b506040516200301238038062003012833981810160405281019062000055919062000199565b6040518060400160405280600d81526020017f4578616d706c65546f6b656e73000000000000000000000000000000000000008152506040518060400160405280600381526020017f45587400000000000000000000000000000000000000000000000000000000008152508160009081620000d2919062000445565b508060019081620000e4919062000445565b50505080600660006101000a81548173ffffffffffffffffffffffffffffffffffffffff021916908373ffffffffffffffffffffffffffffffffffffffff160217905550506200052c565b600080fd5b600073ffffffffffffffffffffffffffffffffffffffff82169050919050565b6000620001618262000134565b9050919050565b620001738162000154565b81146200017f57600080fd5b50565b600081519050620001938162000168565b92915050565b600060208284031215620001b257620001b16200012f565b5b6000620001c28482850162000182565b91505092915050565b600081519050919050565b7f4e487b7100000000000000000000000000000000000000000000000000000000600052604160045260246000fd5b7f4e487b7100000000000000000000000000000000000000000000000000000000600052602260045260246000fd5b600060028204905060018216806200024d57607f821691505b60208210810362000263576200026262000205565b5b50919050565b60008190508160005260206000209050919050565b60006020601f8301049050919050565b600082821b905092915050565b600060088302620002cd7fffffffffffffffffffffffffffffffffffffffffffffffffffffffffffffffff826200028e565b620002d986836200028e565b95508019841693508086168417925050509392505050565b6000819050919050565b6000819050919050565b600062000326620003206200031a84620002f1565b620002fb565b620002f1565b9050919050565b6000819050919050565b620003428362000305565b6200035a62000351826200032d565b8484546200029b565b825550505050565b600090565b6200037162000362565b6200037e81848462000337565b505050565b5b81811015620003a6576200039a60008262000367565b60018101905062000384565b5050565b601f821115620003f557620003bf8162000269565b620003ca846200027e565b81016020851015620003da578190505b620003f2620003e9856200027e565b83018262000383565b50505b505050565b600082821c905092915050565b60006200041a60001984600802620003fa565b1980831691505092915050565b600062000435838362000407565b9150826002028217905092915050565b6200045082620001cb565b67ffffffffffffffff8111156200046c576200046b620001d6565b5b62000478825462000234565b62000485828285620003aa565b600060209050601f831160018114620004bd5760008415620004a8578287015190505b620004b4858262000427565b86555062000524565b601f198416620004cd8662000269565b60005b82811015620004f757848901518255600182019150602085019450602081019050620004d0565b8683101562000517578489015162000513601f89168262000407565b8355505b6001600288020188555050505b505050505050565b612ad6806200053c6000396000f3fe608060405234801561001057600080fd5b506004361061010b5760003560e01c806370a08231116100a2578063b88d4fde11610071578063b88d4fde146102dc578063c42bd05a146102f8578063c87b56dd14610316578063ccb11b8c14610346578063e985e9c5146103645761010b565b806370a08231146102425780638565507d1461027257806395d89b41146102a2578063a22cb465146102c05761010b565b8063095ea7b3116100de578063095ea7b3146101be57806323b872dd146101da57806342842e0e146101f65780636352211e146102125761010b565b806301ffc9a71461011057806306e882af1461014057806306fdde0314610170578063081812fc1461018e575b600080fd5b61012a60048036038101906101259190611b01565b610394565b6040516101379190611b49565b60405180910390f35b61015a60048036038101906101559190611bc2565b610476565b6040516101679190611b49565b60405180910390f35b610178610496565b6040516101859190611c7f565b60405180910390f35b6101a860048036038101906101a39190611cd7565b610528565b6040516101b59190611d13565b60405180910390f35b6101d860048036038101906101d39190611d2e565b61056e565b005b6101f460048036038101906101ef9190611d6e565b610685565b005b610210600480360381019061020b9190611d6e565b6106e5565b005b61022c60048036038101906102279190611cd7565b610705565b6040516102399190611d13565b60405180910390f35b61025c60048036038101906102579190611bc2565b61078b565b6040516102699190611dd0565b60405180910390f35b61028c60048036038101906102879190611bc2565b610842565b6040516102999190611b49565b60405180910390f35b6102aa610906565b6040516102b79190611c7f565b60405180910390f35b6102da60048036038101906102d59190611e17565b610998565b005b6102f660048036038101906102f19190611f8c565b6109ae565b005b610300610a10565b60405161030d9190611b49565b60405180910390f35b610330600480360381019061032b9190611cd7565b610c1e565b60405161033d9190611c7f565b60405180910390f35b61034e610c86565b60405161035b9190611d13565b60405180910390f35b61037e6004803603810190610379919061200f565b610cac565b60405161038b9190611b49565b60405180910390f35b60007f80ac58cd000000000000000000000000000000000000000000000000000000007bffffffffffffffffffffffffffffffffffffffffffffffffffffffff1916827bffffffffffffffffffffffffffffffffffffffffffffffffffffffff1916148061045f57507f5b5e139f000000000000000000000000000000000000000000000000000000007bffffffffffffffffffffffffffffffffffffffffffffffffffffffff1916827bffffffffffffffffffffffffffffffffffffffffffffffffffffffff1916145b8061046f575061046e82610d40565b5b9050919050565b60076020528060005260406000206000915054906101000a900460ff1681565b6060600080546104a59061207e565b80601f01602080910402602001604051908101604052809291908181526020018280546104d19061207e565b801561051e5780601f106104f35761010080835404028352916020019161051e565b820191906000526020600020905b81548152906001019060200180831161050157829003601f168201915b5050505050905090565b600061053382610daa565b6004600083815260200190815260200160002060009054906101000a900473ffffffffffffffffffffffffffffffffffffffff169050919050565b600061057982610705565b90508073ffffffffffffffffffffffffffffffffffffffff168373ffffffffffffffffffffffffffffffffffffffff16036105e9576040517f08c379a00000000000000000000000000000000000000000000000000000000081526004016105e090612121565b60405180910390fd5b8073ffffffffffffffffffffffffffffffffffffffff16610608610df5565b73ffffffffffffffffffffffffffffffffffffffff161480610637575061063681610631610df5565b610cac565b5b610676576040517f08c379a000000000000000000000000000000000000000000000000000000000815260040161066d906121b3565b60405180910390fd5b6106808383610dfd565b505050565b610696610690610df5565b82610eb6565b6106d5576040517f08c379a00000000000000000000000000000000000000000000000000000000081526004016106cc90612245565b60405180910390fd5b6106e0838383610f4b565b505050565b610700838383604051806020016040528060008152506109ae565b505050565b60008061071183611244565b9050600073ffffffffffffffffffffffffffffffffffffffff168173ffffffffffffffffffffffffffffffffffffffff1603610782576040517f08c379a0000000000000000000000000000000000000000000000000000000008152600401610779906122b1565b60405180910390fd5b80915050919050565b60008073ffffffffffffffffffffffffffffffffffffffff168273ffffffffffffffffffffffffffffffffffffffff16036107fb576040517f08c379a00000000000000000000000000000000000000000000000000000000081526004016107f290612343565b60405180910390fd5b600360008373ffffffffffffffffffffffffffffffffffffffff1673ffffffffffffffffffffffffffffffffffffffff168152602001908152602001600020549050919050565b600080600660009054906101000a900473ffffffffffffffffffffffffffffffffffffffff1673ffffffffffffffffffffffffffffffffffffffff16638462151c846040518263ffffffff1660e01b81526004016108a09190611d13565b600060405180830381865afa1580156108bd573d6000803e3d6000fd5b505050506040513d6000823e3d601f19601f820116820180604052508101906108e69190612440565b905060018151106108fb576001915050610901565b60009150505b919050565b6060600180546109159061207e565b80601f01602080910402602001604051908101604052809291908181526020018280546109419061207e565b801561098e5780601f106109635761010080835404028352916020019161098e565b820191906000526020600020905b81548152906001019060200180831161097157829003601f168201915b5050505050905090565b6109aa6109a3610df5565b8383611281565b5050565b6109bf6109b9610df5565b83610eb6565b6109fe576040517f08c379a00000000000000000000000000000000000000000000000000000000081526004016109f590612245565b60405180910390fd5b610a0a848484846113ed565b50505050565b60008073ffffffffffffffffffffffffffffffffffffffff163373ffffffffffffffffffffffffffffffffffffffff1603610a80576040517f08c379a0000000000000000000000000000000000000000000000000000000008152600401610a77906124d5565b60405180910390fd5b60001515600760003373ffffffffffffffffffffffffffffffffffffffff1673ffffffffffffffffffffffffffffffffffffffff16815260200190815260200160002060009054906101000a900460ff16151514610b13576040517f08c379a0000000000000000000000000000000000000000000000000000000008152600401610b0a90612541565b60405180910390fd5b6000610b1e33610842565b90506001151581151514610b67576040517f08c379a0000000000000000000000000000000000000000000000000000000008152600401610b5e906125ad565b60405180910390fd5b60006006601481819054906101000a900461ffff1680929190610b899061260a565b91906101000a81548161ffff021916908361ffff16021790555061ffff169050610bb33382611449565b610bbc81610c1e565b506001600760003373ffffffffffffffffffffffffffffffffffffffff1673ffffffffffffffffffffffffffffffffffffffff16815260200190815260200160002060006101000a81548160ff02191690831515021790555060019250505090565b6060610c2982610daa565b6000610c33611666565b90506000815111610c535760405180602001604052806000815250610c7e565b80610c5d8461167d565b604051602001610c6e929190612670565b6040516020818303038152906040525b915050919050565b600660009054906101000a900473ffffffffffffffffffffffffffffffffffffffff1681565b6000600560008473ffffffffffffffffffffffffffffffffffffffff1673ffffffffffffffffffffffffffffffffffffffff16815260200190815260200160002060008373ffffffffffffffffffffffffffffffffffffffff1673ffffffffffffffffffffffffffffffffffffffff16815260200190815260200160002060009054906101000a900460ff16905092915050565b60007f01ffc9a7000000000000000000000000000000000000000000000000000000007bffffffffffffffffffffffffffffffffffffffffffffffffffffffff1916827bffffffffffffffffffffffffffffffffffffffffffffffffffffffff1916149050919050565b610db38161174b565b610df2576040517f08c379a0000000000000000000000000000000000000000000000000000000008152600401610de9906122b1565b60405180910390fd5b50565b600033905090565b816004600083815260200190815260200160002060006101000a81548173ffffffffffffffffffffffffffffffffffffffff021916908373ffffffffffffffffffffffffffffffffffffffff160217905550808273ffffffffffffffffffffffffffffffffffffffff16610e7083610705565b73ffffffffffffffffffffffffffffffffffffffff167f8c5be1e5ebec7d5bd14f71427d1e84f3dd0314c0f7b2291e5b200ac8c7c3b92560405160405180910390a45050565b600080610ec283610705565b90508073ffffffffffffffffffffffffffffffffffffffff168473ffffffffffffffffffffffffffffffffffffffff161480610f045750610f038185610cac565b5b80610f4257508373ffffffffffffffffffffffffffffffffffffffff16610f2a84610528565b73ffffffffffffffffffffffffffffffffffffffff16145b91505092915050565b8273ffffffffffffffffffffffffffffffffffffffff16610f6b82610705565b73ffffffffffffffffffffffffffffffffffffffff1614610fc1576040517f08c379a0000000000000000000000000000000000000000000000000000000008152600401610fb890612706565b60405180910390fd5b600073ffffffffffffffffffffffffffffffffffffffff168273ffffffffffffffffffffffffffffffffffffffff1603611030576040517f08c379a000000000000000000000000000000000000000000000000000000000815260040161102790612798565b60405180910390fd5b61103d838383600161178c565b8273ffffffffffffffffffffffffffffffffffffffff1661105d82610705565b73ffffffffffffffffffffffffffffffffffffffff16146110b3576040517f08c379a00000000000000000000000000000000000000000000000000000000081526004016110aa90612706565b60405180910390fd5b6004600082815260200190815260200160002060006101000a81549073ffffffffffffffffffffffffffffffffffffffff02191690556001600360008573ffffffffffffffffffffffffffffffffffffffff1673ffffffffffffffffffffffffffffffffffffffff168152602001908152602001600020600082825403925050819055506001600360008473ffffffffffffffffffffffffffffffffffffffff1673ffffffffffffffffffffffffffffffffffffffff16815260200190815260200160002060008282540192505081905550816002600083815260200190815260200160002060006101000a81548173ffffffffffffffffffffffffffffffffffffffff021916908373ffffffffffffffffffffffffffffffffffffffff160217905550808273ffffffffffffffffffffffffffffffffffffffff168473ffffffffffffffffffffffffffffffffffffffff167fddf252ad1be2c89b69c2b068fc378daa952ba7f163c4a11628f55a4df523b3ef60405160405180910390a461123f8383836001611792565b505050565b60006002600083815260200190815260200160002060009054906101000a900473ffffffffffffffffffffffffffffffffffffffff169050919050565b8173ffffffffffffffffffffffffffffffffffffffff168373ffffffffffffffffffffffffffffffffffffffff16036112ef576040517f08c379a00000000000000000000000000000000000000000000000000000000081526004016112e690612804565b60405180910390fd5b80600560008573ffffffffffffffffffffffffffffffffffffffff1673ffffffffffffffffffffffffffffffffffffffff16815260200190815260200160002060008473ffffffffffffffffffffffffffffffffffffffff1673ffffffffffffffffffffffffffffffffffffffff16815260200190815260200160002060006101000a81548160ff0219169083151502179055508173ffffffffffffffffffffffffffffffffffffffff168373ffffffffffffffffffffffffffffffffffffffff167f17307eab39ab6107e8899845ad3d59bd9653f200f220920489ca2b5937696c31836040516113e09190611b49565b60405180910390a3505050565b6113f8848484610f4b565b61140484848484611798565b611443576040517f08c379a000000000000000000000000000000000000000000000000000000000815260040161143a90612896565b60405180910390fd5b50505050565b600073ffffffffffffffffffffffffffffffffffffffff168273ffffffffffffffffffffffffffffffffffffffff16036114b8576040517f08c379a00000000000000000000000000000000000000000000000000000000081526004016114af90612902565b60405180910390fd5b6114c18161174b565b15611501576040517f08c379a00000000000000000000000000000000000000000000000000000000081526004016114f89061296e565b60405180910390fd5b61150f60008383600161178c565b6115188161174b565b15611558576040517f08c379a000000000000000000000000000000000000000000000000000000000815260040161154f9061296e565b60405180910390fd5b6001600360008473ffffffffffffffffffffffffffffffffffffffff1673ffffffffffffffffffffffffffffffffffffffff16815260200190815260200160002060008282540192505081905550816002600083815260200190815260200160002060006101000a81548173ffffffffffffffffffffffffffffffffffffffff021916908373ffffffffffffffffffffffffffffffffffffffff160217905550808273ffffffffffffffffffffffffffffffffffffffff16600073ffffffffffffffffffffffffffffffffffffffff167fddf252ad1be2c89b69c2b068fc378daa952ba7f163c4a11628f55a4df523b3ef60405160405180910390a4611662600083836001611792565b5050565b606060405180602001604052806000815250905090565b60606000600161168c8461191f565b01905060008167ffffffffffffffff8111156116ab576116aa611e61565b5b6040519080825280601f01601f1916602001820160405280156116dd5781602001600182028036833780820191505090505b509050600082602001820190505b600115611740578080600190039150507f3031323334353637383961626364656600000000000000000000000000000000600a86061a8153600a85816117345761173361298e565b5b049450600085036116eb575b819350505050919050565b60008073ffffffffffffffffffffffffffffffffffffffff1661176d83611244565b73ffffffffffffffffffffffffffffffffffffffff1614159050919050565b50505050565b50505050565b60006117b98473ffffffffffffffffffffffffffffffffffffffff16611a72565b15611912578373ffffffffffffffffffffffffffffffffffffffff1663150b7a026117e2610df5565b8786866040518563ffffffff1660e01b81526004016118049493929190612a12565b6020604051808303816000875af192505050801561184057506040513d601f19601f8201168201806040525081019061183d9190612a73565b60015b6118c2573d8060008114611870576040519150601f19603f3d011682016040523d82523d6000602084013e611875565b606091505b5060008151036118ba576040517f08c379a00000000000000000000000000000000000000000000000000000000081526004016118b190612896565b60405180910390fd5b805181602001fd5b63150b7a0260e01b7bffffffffffffffffffffffffffffffffffffffffffffffffffffffff1916817bffffffffffffffffffffffffffffffffffffffffffffffffffffffff191614915050611917565b600190505b949350505050565b600080600090507a184f03e93ff9f4daa797ed6e38ed64bf6a1f010000000000000000831061197d577a184f03e93ff9f4daa797ed6e38ed64bf6a1f01000000000000000083816119735761197261298e565b5b0492506040810190505b6d04ee2d6d415b85acef810000000083106119ba576d04ee2d6d415b85acef810000000083816119b0576119af61298e565b5b0492506020810190505b662386f26fc1000083106119e957662386f26fc1000083816119df576119de61298e565b5b0492506010810190505b6305f5e1008310611a12576305f5e1008381611a0857611a0761298e565b5b0492506008810190505b6127108310611a37576127108381611a2d57611a2c61298e565b5b0492506004810190505b60648310611a5a5760648381611a5057611a4f61298e565b5b0492506002810190505b600a8310611a69576001810190505b80915050919050565b6000808273ffffffffffffffffffffffffffffffffffffffff163b119050919050565b6000604051905090565b600080fd5b600080fd5b60007fffffffff0000000000000000000000000000000000000000000000000000000082169050919050565b611ade81611aa9565b8114611ae957600080fd5b50565b600081359050611afb81611ad5565b92915050565b600060208284031215611b1757611b16611a9f565b5b6000611b2584828501611aec565b91505092915050565b60008115159050919050565b611b4381611b2e565b82525050565b6000602082019050611b5e6000830184611b3a565b92915050565b600073ffffffffffffffffffffffffffffffffffffffff82169050919050565b6000611b8f82611b64565b9050919050565b611b9f81611b84565b8114611baa57600080fd5b50565b600081359050611bbc81611b96565b92915050565b600060208284031215611bd857611bd7611a9f565b5b6000611be684828501611bad565b91505092915050565b600081519050919050565b600082825260208201905092915050565b60005b83811015611c29578082015181840152602081019050611c0e565b60008484015250505050565b6000601f19601f8301169050919050565b6000611c5182611bef565b611c5b8185611bfa565b9350611c6b818560208601611c0b565b611c7481611c35565b840191505092915050565b60006020820190508181036000830152611c998184611c46565b905092915050565b6000819050919050565b611cb481611ca1565b8114611cbf57600080fd5b50565b600081359050611cd181611cab565b92915050565b600060208284031215611ced57611cec611a9f565b5b6000611cfb84828501611cc2565b91505092915050565b611d0d81611b84565b82525050565b6000602082019050611d286000830184611d04565b92915050565b60008060408385031215611d4557611d44611a9f565b5b6000611d5385828601611bad565b9250506020611d6485828601611cc2565b9150509250929050565b600080600060608486031215611d8757611d86611a9f565b5b6000611d9586828701611bad565b9350506020611da686828701611bad565b9250506040611db786828701611cc2565b9150509250925092565b611dca81611ca1565b82525050565b6000602082019050611de56000830184611dc1565b92915050565b611df481611b2e565b8114611dff57600080fd5b50565b600081359050611e1181611deb565b92915050565b60008060408385031215611e2e57611e2d611a9f565b5b6000611e3c85828601611bad565b9250506020611e4d85828601611e02565b9150509250929050565b600080fd5b600080fd5b7f4e487b7100000000000000000000000000000000000000000000000000000000600052604160045260246000fd5b611e9982611c35565b810181811067ffffffffffffffff82111715611eb857611eb7611e61565b5b80604052505050565b6000611ecb611a95565b9050611ed78282611e90565b919050565b600067ffffffffffffffff821115611ef757611ef6611e61565b5b611f0082611c35565b9050602081019050919050565b82818337600083830152505050565b6000611f2f611f2a84611edc565b611ec1565b905082815260208101848484011115611f4b57611f4a611e5c565b5b611f56848285611f0d565b509392505050565b600082601f830112611f7357611f72611e57565b5b8135611f83848260208601611f1c565b91505092915050565b60008060008060808587031215611fa657611fa5611a9f565b5b6000611fb487828801611bad565b9450506020611fc587828801611bad565b9350506040611fd687828801611cc2565b925050606085013567ffffffffffffffff811115611ff757611ff6611aa4565b5b61200387828801611f5e565b91505092959194509250565b6000806040838503121561202657612025611a9f565b5b600061203485828601611bad565b925050602061204585828601611bad565b9150509250929050565b7f4e487b7100000000000000000000000000000000000000000000000000000000600052602260045260246000fd5b6000600282049050600182168061209657607f821691505b6020821081036120a9576120a861204f565b5b50919050565b7f4552433732313a20617070726f76616c20746f2063757272656e74206f776e6560008201527f7200000000000000000000000000000000000000000000000000000000000000602082015250565b600061210b602183611bfa565b9150612116826120af565b604082019050919050565b6000602082019050818103600083015261213a816120fe565b9050919050565b7f4552433732313a20617070726f76652063616c6c6572206973206e6f7420746f60008201527f6b656e206f776e6572206f7220617070726f76656420666f7220616c6c000000602082015250565b600061219d603d83611bfa565b91506121a882612141565b604082019050919050565b600060208201905081810360008301526121cc81612190565b9050919050565b7f4552433732313a2063616c6c6572206973206e6f7420746f6b656e206f776e6560008201527f72206f7220617070726f76656400000000000000000000000000000000000000602082015250565b600061222f602d83611bfa565b915061223a826121d3565b604082019050919050565b6000602082019050818103600083015261225e81612222565b9050919050565b7f4552433732313a20696e76616c696420746f6b656e2049440000000000000000600082015250565b600061229b601883611bfa565b91506122a682612265565b602082019050919050565b600060208201905081810360008301526122ca8161228e565b9050919050565b7f4552433732313a2061646472657373207a65726f206973206e6f74206120766160008201527f6c6964206f776e65720000000000000000000000000000000000000000000000602082015250565b600061232d602983611bfa565b9150612338826122d1565b604082019050919050565b6000602082019050818103600083015261235c81612320565b9050919050565b600067ffffffffffffffff82111561237e5761237d611e61565b5b602082029050602081019050919050565b600080fd5b6000815190506123a381611cab565b92915050565b60006123bc6123b784612363565b611ec1565b905080838252602082019050602084028301858111156123df576123de61238f565b5b835b8181101561240857806123f48882612394565b8452602084019350506020810190506123e1565b5050509392505050565b600082601f83011261242757612426611e57565b5b81516124378482602086016123a9565b91505092915050565b60006020828403121561245657612455611a9f565b5b600082015167ffffffffffffffff81111561247457612473611aa4565b5b61248084828501612412565b91505092915050565b7f4e6f7420612076616c6964206164647265737300000000000000000000000000600082015250565b60006124bf601383611bfa565b91506124ca82612489565b602082019050919050565b600060208201905081810360008301526124ee816124b2565b9050919050565b7f7061737320616c72656164792069737365640000000000000000000000000000600082015250565b600061252b601283611bfa565b9150612536826124f5565b602082019050919050565b6000602082019050818103600083015261255a8161251e565b9050919050565b7f596f752068617665206e6f206e616b616d69676f73204e465473000000000000600082015250565b6000612597601a83611bfa565b91506125a282612561565b602082019050919050565b600060208201905081810360008301526125c68161258a565b9050919050565b7f4e487b7100000000000000000000000000000000000000000000000000000000600052601160045260246000fd5b600061ffff82169050919050565b6000612615826125fc565b915061ffff8203612629576126286125cd565b5b600182019050919050565b600081905092915050565b600061264a82611bef565b6126548185612634565b9350612664818560208601611c0b565b80840191505092915050565b600061267c828561263f565b9150612688828461263f565b91508190509392505050565b7f4552433732313a207472616e736665722066726f6d20696e636f72726563742060008201527f6f776e6572000000000000000000000000000000000000000000000000000000602082015250565b60006126f0602583611bfa565b91506126fb82612694565b604082019050919050565b6000602082019050818103600083015261271f816126e3565b9050919050565b7f4552433732313a207472616e7366657220746f20746865207a65726f2061646460008201527f7265737300000000000000000000000000000000000000000000000000000000602082015250565b6000612782602483611bfa565b915061278d82612726565b604082019050919050565b600060208201905081810360008301526127b181612775565b9050919050565b7f4552433732313a20617070726f766520746f2063616c6c657200000000000000600082015250565b60006127ee601983611bfa565b91506127f9826127b8565b602082019050919050565b6000602082019050818103600083015261281d816127e1565b9050919050565b7f4552433732313a207472616e7366657220746f206e6f6e20455243373231526560008201527f63656976657220696d706c656d656e7465720000000000000000000000000000602082015250565b6000612880603283611bfa565b915061288b82612824565b604082019050919050565b600060208201905081810360008301526128af81612873565b9050919050565b7f4552433732313a206d696e7420746f20746865207a65726f2061646472657373600082015250565b60006128ec602083611bfa565b91506128f7826128b6565b602082019050919050565b6000602082019050818103600083015261291b816128df565b9050919050565b7f4552433732313a20746f6b656e20616c7265616479206d696e74656400000000600082015250565b6000612958601c83611bfa565b915061296382612922565b602082019050919050565b600060208201905081810360008301526129878161294b565b9050919050565b7f4e487b7100000000000000000000000000000000000000000000000000000000600052601260045260246000fd5b600081519050919050565b600082825260208201905092915050565b60006129e4826129bd565b6129ee81856129c8565b93506129fe818560208601611c0b565b612a0781611c35565b840191505092915050565b6000608082019050612a276000830187611d04565b612a346020830186611d04565b612a416040830185611dc1565b8181036060830152612a5381846129d9565b905095945050505050565b600081519050612a6d81611ad5565b92915050565b600060208284031215612a8957612a88611a9f565b5b6000612a9784828501612a5e565b9150509291505056fea264697066735822122044bb69413ef70fd17e00b1f0c57c697f14449d8f930b89ec02491d8adcf7dbf164736f6c63430008120033",
  "linkReferences": {},
  "deployedLinkReferences": {}
}