{
  "_format": "hh-sol-artifact-1",
  "contractName": "NewPass",
  "sourceName": "contracts/Newpass.sol",
  "abi": [
    {
      "inputs": [],
      "stateMutability": "nonpayable",
      "type": "constructor"
    },
    {
      "anonymous": false,
      "inputs": [
        {
          "indexed": true,
          "internalType": "address",
          "name": "owner",
          "type": "address"
        },
        {
          "indexed": true,
          "internalType": "address",
          "name": "approved",
          "type": "address"
        },
        {
          "indexed": true,
          "internalType": "uint256",
          "name": "tokenId",
          "type": "uint256"
        }
      ],
      "name": "Approval",
      "type": "event"
    },
    {
      "anonymous": false,
      "inputs": [
        {
          "indexed": true,
          "internalType": "address",
          "name": "owner",
          "type": "address"
        },
        {
          "indexed": true,
          "internalType": "address",
          "name": "operator",
          "type": "address"
        },
        {
          "indexed": false,
          "internalType": "bool",
          "name": "approved",
          "type": "bool"
        }
      ],
      "name": "ApprovalForAll",
      "type": "event"
    },
    {
      "anonymous": false,
      "inputs": [
        {
          "indexed": true,
          "internalType": "address",
          "name": "from",
          "type": "address"
        },
        {
          "indexed": true,
          "internalType": "address",
          "name": "to",
          "type": "address"
        },
        {
          "indexed": true,
          "internalType": "uint256",
          "name": "tokenId",
          "type": "uint256"
        }
      ],
      "name": "Transfer",
      "type": "event"
    },
    {
      "inputs": [
        {
          "internalType": "address",
          "name": "to",
          "type": "address"
        },
        {
          "internalType": "uint256",
          "name": "tokenId",
          "type": "uint256"
        }
      ],
      "name": "approve",
      "outputs": [],
      "stateMutability": "nonpayable",
      "type": "function"
    },
    {
      "inputs": [
        {
          "internalType": "address",
          "name": "owner",
          "type": "address"
        }
      ],
      "name": "balanceOf",
      "outputs": [
        {
          "internalType": "uint256",
          "name": "",
          "type": "uint256"
        }
      ],
      "stateMutability": "view",
      "type": "function"
    },
    {
      "inputs": [
        {
          "internalType": "uint256",
          "name": "tokenId",
          "type": "uint256"
        }
      ],
      "name": "getApproved",
      "outputs": [
        {
          "internalType": "address",
          "name": "",
          "type": "address"
        }
      ],
      "stateMutability": "view",
      "type": "function"
    },
    {
      "inputs": [
        {
          "internalType": "address",
          "name": "owner",
          "type": "address"
        },
        {
          "internalType": "address",
          "name": "operator",
          "type": "address"
        }
      ],
      "name": "isApprovedForAll",
      "outputs": [
        {
          "internalType": "bool",
          "name": "",
          "type": "bool"
        }
      ],
      "stateMutability": "view",
      "type": "function"
    },
    {
      "inputs": [],
      "name": "nakaAddress",
      "outputs": [
        {
          "internalType": "address",
          "name": "",
          "type": "address"
        }
      ],
      "stateMutability": "view",
      "type": "function"
    },
    {
      "inputs": [],
      "name": "name",
      "outputs": [
        {
          "internalType": "string",
          "name": "",
          "type": "string"
        }
      ],
      "stateMutability": "view",
      "type": "function"
    },
    {
      "inputs": [],
      "name": "newToken",
      "outputs": [
        {
          "internalType": "bool",
          "name": "",
          "type": "bool"
        }
      ],
      "stateMutability": "nonpayable",
      "type": "function"
    },
    {
      "inputs": [
        {
          "internalType": "uint256",
          "name": "tokenId",
          "type": "uint256"
        }
      ],
      "name": "ownerOf",
      "outputs": [
        {
          "internalType": "address",
          "name": "",
          "type": "address"
        }
      ],
      "stateMutability": "view",
      "type": "function"
    },
    {
      "inputs": [
        {
          "internalType": "address",
          "name": "",
          "type": "address"
        }
      ],
      "name": "passIssued",
      "outputs": [
        {
          "internalType": "bool",
          "name": "",
          "type": "bool"
        }
      ],
      "stateMutability": "view",
      "type": "function"
    },
    {
      "inputs": [
        {
          "internalType": "address",
          "name": "from",
          "type": "address"
        },
        {
          "internalType": "address",
          "name": "to",
          "type": "address"
        },
        {
          "internalType": "uint256",
          "name": "tokenId",
          "type": "uint256"
        }
      ],
      "name": "safeTransferFrom",
      "outputs": [],
      "stateMutability": "nonpayable",
      "type": "function"
    },
    {
      "inputs": [
        {
          "internalType": "address",
          "name": "from",
          "type": "address"
        },
        {
          "internalType": "address",
          "name": "to",
          "type": "address"
        },
        {
          "internalType": "uint256",
          "name": "tokenId",
          "type": "uint256"
        },
        {
          "internalType": "bytes",
          "name": "data",
          "type": "bytes"
        }
      ],
      "name": "safeTransferFrom",
      "outputs": [],
      "stateMutability": "nonpayable",
      "type": "function"
    },
    {
      "inputs": [
        {
          "internalType": "address",
          "name": "operator",
          "type": "address"
        },
        {
          "internalType": "bool",
          "name": "approved",
          "type": "bool"
        }
      ],
      "name": "setApprovalForAll",
      "outputs": [],
      "stateMutability": "nonpayable",
      "type": "function"
    },
    {
      "inputs": [
        {
          "internalType": "bytes4",
          "name": "interfaceId",
          "type": "bytes4"
        }
      ],
      "name": "supportsInterface",
      "outputs": [
        {
          "internalType": "bool",
          "name": "",
          "type": "bool"
        }
      ],
      "stateMutability": "view",
      "type": "function"
    },
    {
      "inputs": [],
      "name": "symbol",
      "outputs": [
        {
          "internalType": "string",
          "name": "",
          "type": "string"
        }
      ],
      "stateMutability": "view",
      "type": "function"
    },
    {
      "inputs": [
        {
          "internalType": "uint256",
          "name": "tokenId",
          "type": "uint256"
        }
      ],
      "name": "tokenURI",
      "outputs": [
        {
          "internalType": "string",
          "name": "",
          "type": "string"
        }
      ],
      "stateMutability": "view",
      "type": "function"
    },
    {
      "inputs": [
        {
          "internalType": "address",
          "name": "from",
          "type": "address"
        },
        {
          "internalType": "address",
          "name": "to",
          "type": "address"
        },
        {
          "internalType": "uint256",
          "name": "tokenId",
          "type": "uint256"
        }
      ],
      "name": "transferFrom",
      "outputs": [],
      "stateMutability": "nonpayable",
      "type": "function"
    }
  ],
  "bytecode": "0x608060405273d774557b647330c91bf44cfeab205095f7e6c367600660006101000a81548173ffffffffffffffffffffffffffffffffffffffff021916908373ffffffffffffffffffffffffffffffffffffffff1602179055506000600660146101000a81548161ffff021916908361ffff1602179055503480156200008457600080fd5b506040518060400160405280600d81526020017f4578616d706c65546f6b656e73000000000000000000000000000000000000008152506040518060400160405280600381526020017f4558740000000000000000000000000000000000000000000000000000000000815250816000908162000102919062000397565b50806001908162000114919062000397565b5050506200047e565b600081519050919050565b7f4e487b7100000000000000000000000000000000000000000000000000000000600052604160045260246000fd5b7f4e487b7100000000000000000000000000000000000000000000000000000000600052602260045260246000fd5b600060028204905060018216806200019f57607f821691505b602082108103620001b557620001b462000157565b5b50919050565b60008190508160005260206000209050919050565b60006020601f8301049050919050565b600082821b905092915050565b6000600883026200021f7fffffffffffffffffffffffffffffffffffffffffffffffffffffffffffffffff82620001e0565b6200022b8683620001e0565b95508019841693508086168417925050509392505050565b6000819050919050565b6000819050919050565b600062000278620002726200026c8462000243565b6200024d565b62000243565b9050919050565b6000819050919050565b620002948362000257565b620002ac620002a3826200027f565b848454620001ed565b825550505050565b600090565b620002c3620002b4565b620002d081848462000289565b505050565b5b81811015620002f857620002ec600082620002b9565b600181019050620002d6565b5050565b601f82111562000347576200031181620001bb565b6200031c84620001d0565b810160208510156200032c578190505b620003446200033b85620001d0565b830182620002d5565b50505b505050565b600082821c905092915050565b60006200036c600019846008026200034c565b1980831691505092915050565b600062000387838362000359565b9150826002028217905092915050565b620003a2826200011d565b67ffffffffffffffff811115620003be57620003bd62000128565b5b620003ca825462000186565b620003d7828285620002fc565b600060209050601f8311600181146200040f5760008415620003fa578287015190505b62000406858262000379565b86555062000476565b601f1984166200041f86620001bb565b60005b82811015620004495784890151825560018201915060208501945060208101905062000422565b8683101562000469578489015162000465601f89168262000359565b8355505b6001600288020188555050505b505050505050565b61296e806200048e6000396000f3fe608060405234801561001057600080fd5b50600436106101005760003560e01c806370a0823111610097578063c42bd05a11610066578063c42bd05a146102bd578063c87b56dd146102db578063ccb11b8c1461030b578063e985e9c51461032957610100565b806370a082311461023757806395d89b4114610267578063a22cb46514610285578063b88d4fde146102a157610100565b8063095ea7b3116100d3578063095ea7b3146101b357806323b872dd146101cf57806342842e0e146101eb5780636352211e1461020757610100565b806301ffc9a71461010557806306e882af1461013557806306fdde0314610165578063081812fc14610183575b600080fd5b61011f600480360381019061011a9190611a05565b610359565b60405161012c9190611a4d565b60405180910390f35b61014f600480360381019061014a9190611ac6565b61043b565b60405161015c9190611a4d565b60405180910390f35b61016d61045b565b60405161017a9190611b83565b60405180910390f35b61019d60048036038101906101989190611bdb565b6104ed565b6040516101aa9190611c17565b60405180910390f35b6101cd60048036038101906101c89190611c32565b610533565b005b6101e960048036038101906101e49190611c72565b61064a565b005b61020560048036038101906102009190611c72565b6106aa565b005b610221600480360381019061021c9190611bdb565b6106ca565b60405161022e9190611c17565b60405180910390f35b610251600480360381019061024c9190611ac6565b610750565b60405161025e9190611cd4565b60405180910390f35b61026f610807565b60405161027c9190611b83565b60405180910390f35b61029f600480360381019061029a9190611d1b565b610899565b005b6102bb60048036038101906102b69190611e90565b6108af565b005b6102c5610911565b6040516102d29190611a4d565b60405180910390f35b6102f560048036038101906102f09190611bdb565b610b22565b6040516103029190611b83565b60405180910390f35b610313610b8a565b6040516103209190611c17565b60405180910390f35b610343600480360381019061033e9190611f13565b610bb0565b6040516103509190611a4d565b60405180910390f35b60007f80ac58cd000000000000000000000000000000000000000000000000000000007bffffffffffffffffffffffffffffffffffffffffffffffffffffffff1916827bffffffffffffffffffffffffffffffffffffffffffffffffffffffff1916148061042457507f5b5e139f000000000000000000000000000000000000000000000000000000007bffffffffffffffffffffffffffffffffffffffffffffffffffffffff1916827bffffffffffffffffffffffffffffffffffffffffffffffffffffffff1916145b80610434575061043382610c44565b5b9050919050565b60076020528060005260406000206000915054906101000a900460ff1681565b60606000805461046a90611f82565b80601f016020809104026020016040519081016040528092919081815260200182805461049690611f82565b80156104e35780601f106104b8576101008083540402835291602001916104e3565b820191906000526020600020905b8154815290600101906020018083116104c657829003601f168201915b5050505050905090565b60006104f882610cae565b6004600083815260200190815260200160002060009054906101000a900473ffffffffffffffffffffffffffffffffffffffff169050919050565b600061053e826106ca565b90508073ffffffffffffffffffffffffffffffffffffffff168373ffffffffffffffffffffffffffffffffffffffff16036105ae576040517f08c379a00000000000000000000000000000000000000000000000000000000081526004016105a590612025565b60405180910390fd5b8073ffffffffffffffffffffffffffffffffffffffff166105cd610cf9565b73ffffffffffffffffffffffffffffffffffffffff1614806105fc57506105fb816105f6610cf9565b610bb0565b5b61063b576040517f08c379a0000000000000000000000000000000000000000000000000000000008152600401610632906120b7565b60405180910390fd5b6106458383610d01565b505050565b61065b610655610cf9565b82610dba565b61069a576040517f08c379a000000000000000000000000000000000000000000000000000000000815260040161069190612149565b60405180910390fd5b6106a5838383610e4f565b505050565b6106c5838383604051806020016040528060008152506108af565b505050565b6000806106d683611148565b9050600073ffffffffffffffffffffffffffffffffffffffff168173ffffffffffffffffffffffffffffffffffffffff1603610747576040517f08c379a000000000000000000000000000000000000000000000000000000000815260040161073e906121b5565b60405180910390fd5b80915050919050565b60008073ffffffffffffffffffffffffffffffffffffffff168273ffffffffffffffffffffffffffffffffffffffff16036107c0576040517f08c379a00000000000000000000000000000000000000000000000000000000081526004016107b790612247565b60405180910390fd5b600360008373ffffffffffffffffffffffffffffffffffffffff1673ffffffffffffffffffffffffffffffffffffffff168152602001908152602001600020549050919050565b60606001805461081690611f82565b80601f016020809104026020016040519081016040528092919081815260200182805461084290611f82565b801561088f5780601f106108645761010080835404028352916020019161088f565b820191906000526020600020905b81548152906001019060200180831161087257829003601f168201915b5050505050905090565b6108ab6108a4610cf9565b8383611185565b5050565b6108c06108ba610cf9565b83610dba565b6108ff576040517f08c379a00000000000000000000000000000000000000000000000000000000081526004016108f690612149565b60405180910390fd5b61090b848484846112f1565b50505050565b60008073ffffffffffffffffffffffffffffffffffffffff163373ffffffffffffffffffffffffffffffffffffffff1603610981576040517f08c379a0000000000000000000000000000000000000000000000000000000008152600401610978906122b3565b60405180910390fd5b6000600660009054906101000a900473ffffffffffffffffffffffffffffffffffffffff1673ffffffffffffffffffffffffffffffffffffffff16638462151c336040518263ffffffff1660e01b81526004016109de9190611c17565b600060405180830381865afa1580156109fb573d6000803e3d6000fd5b505050506040513d6000823e3d601f19601f82011682018060405250810190610a2491906123b0565b9050600181511015610a6b576040517f08c379a0000000000000000000000000000000000000000000000000000000008152600401610a6290612445565b60405180910390fd5b60006006601481819054906101000a900461ffff1680929190610a8d906124a2565b91906101000a81548161ffff021916908361ffff16021790555061ffff169050610ab7338261134d565b610ac081610b22565b506001600760003373ffffffffffffffffffffffffffffffffffffffff1673ffffffffffffffffffffffffffffffffffffffff16815260200190815260200160002060006101000a81548160ff02191690831515021790555060019250505090565b6060610b2d82610cae565b6000610b3761156a565b90506000815111610b575760405180602001604052806000815250610b82565b80610b6184611581565b604051602001610b72929190612508565b6040516020818303038152906040525b915050919050565b600660009054906101000a900473ffffffffffffffffffffffffffffffffffffffff1681565b6000600560008473ffffffffffffffffffffffffffffffffffffffff1673ffffffffffffffffffffffffffffffffffffffff16815260200190815260200160002060008373ffffffffffffffffffffffffffffffffffffffff1673ffffffffffffffffffffffffffffffffffffffff16815260200190815260200160002060009054906101000a900460ff16905092915050565b60007f01ffc9a7000000000000000000000000000000000000000000000000000000007bffffffffffffffffffffffffffffffffffffffffffffffffffffffff1916827bffffffffffffffffffffffffffffffffffffffffffffffffffffffff1916149050919050565b610cb78161164f565b610cf6576040517f08c379a0000000000000000000000000000000000000000000000000000000008152600401610ced906121b5565b60405180910390fd5b50565b600033905090565b816004600083815260200190815260200160002060006101000a81548173ffffffffffffffffffffffffffffffffffffffff021916908373ffffffffffffffffffffffffffffffffffffffff160217905550808273ffffffffffffffffffffffffffffffffffffffff16610d74836106ca565b73ffffffffffffffffffffffffffffffffffffffff167f8c5be1e5ebec7d5bd14f71427d1e84f3dd0314c0f7b2291e5b200ac8c7c3b92560405160405180910390a45050565b600080610dc6836106ca565b90508073ffffffffffffffffffffffffffffffffffffffff168473ffffffffffffffffffffffffffffffffffffffff161480610e085750610e078185610bb0565b5b80610e4657508373ffffffffffffffffffffffffffffffffffffffff16610e2e846104ed565b73ffffffffffffffffffffffffffffffffffffffff16145b91505092915050565b8273ffffffffffffffffffffffffffffffffffffffff16610e6f826106ca565b73ffffffffffffffffffffffffffffffffffffffff1614610ec5576040517f08c379a0000000000000000000000000000000000000000000000000000000008152600401610ebc9061259e565b60405180910390fd5b600073ffffffffffffffffffffffffffffffffffffffff168273ffffffffffffffffffffffffffffffffffffffff1603610f34576040517f08c379a0000000000000000000000000000000000000000000000000000000008152600401610f2b90612630565b60405180910390fd5b610f418383836001611690565b8273ffffffffffffffffffffffffffffffffffffffff16610f61826106ca565b73ffffffffffffffffffffffffffffffffffffffff1614610fb7576040517f08c379a0000000000000000000000000000000000000000000000000000000008152600401610fae9061259e565b60405180910390fd5b6004600082815260200190815260200160002060006101000a81549073ffffffffffffffffffffffffffffffffffffffff02191690556001600360008573ffffffffffffffffffffffffffffffffffffffff1673ffffffffffffffffffffffffffffffffffffffff168152602001908152602001600020600082825403925050819055506001600360008473ffffffffffffffffffffffffffffffffffffffff1673ffffffffffffffffffffffffffffffffffffffff16815260200190815260200160002060008282540192505081905550816002600083815260200190815260200160002060006101000a81548173ffffffffffffffffffffffffffffffffffffffff021916908373ffffffffffffffffffffffffffffffffffffffff160217905550808273ffffffffffffffffffffffffffffffffffffffff168473ffffffffffffffffffffffffffffffffffffffff167fddf252ad1be2c89b69c2b068fc378daa952ba7f163c4a11628f55a4df523b3ef60405160405180910390a46111438383836001611696565b505050565b60006002600083815260200190815260200160002060009054906101000a900473ffffffffffffffffffffffffffffffffffffffff169050919050565b8173ffffffffffffffffffffffffffffffffffffffff168373ffffffffffffffffffffffffffffffffffffffff16036111f3576040517f08c379a00000000000000000000000000000000000000000000000000000000081526004016111ea9061269c565b60405180910390fd5b80600560008573ffffffffffffffffffffffffffffffffffffffff1673ffffffffffffffffffffffffffffffffffffffff16815260200190815260200160002060008473ffffffffffffffffffffffffffffffffffffffff1673ffffffffffffffffffffffffffffffffffffffff16815260200190815260200160002060006101000a81548160ff0219169083151502179055508173ffffffffffffffffffffffffffffffffffffffff168373ffffffffffffffffffffffffffffffffffffffff167f17307eab39ab6107e8899845ad3d59bd9653f200f220920489ca2b5937696c31836040516112e49190611a4d565b60405180910390a3505050565b6112fc848484610e4f565b6113088484848461169c565b611347576040517f08c379a000000000000000000000000000000000000000000000000000000000815260040161133e9061272e565b60405180910390fd5b50505050565b600073ffffffffffffffffffffffffffffffffffffffff168273ffffffffffffffffffffffffffffffffffffffff16036113bc576040517f08c379a00000000000000000000000000000000000000000000000000000000081526004016113b39061279a565b60405180910390fd5b6113c58161164f565b15611405576040517f08c379a00000000000000000000000000000000000000000000000000000000081526004016113fc90612806565b60405180910390fd5b611413600083836001611690565b61141c8161164f565b1561145c576040517f08c379a000000000000000000000000000000000000000000000000000000000815260040161145390612806565b60405180910390fd5b6001600360008473ffffffffffffffffffffffffffffffffffffffff1673ffffffffffffffffffffffffffffffffffffffff16815260200190815260200160002060008282540192505081905550816002600083815260200190815260200160002060006101000a81548173ffffffffffffffffffffffffffffffffffffffff021916908373ffffffffffffffffffffffffffffffffffffffff160217905550808273ffffffffffffffffffffffffffffffffffffffff16600073ffffffffffffffffffffffffffffffffffffffff167fddf252ad1be2c89b69c2b068fc378daa952ba7f163c4a11628f55a4df523b3ef60405160405180910390a4611566600083836001611696565b5050565b606060405180602001604052806000815250905090565b60606000600161159084611823565b01905060008167ffffffffffffffff8111156115af576115ae611d65565b5b6040519080825280601f01601f1916602001820160405280156115e15781602001600182028036833780820191505090505b509050600082602001820190505b600115611644578080600190039150507f3031323334353637383961626364656600000000000000000000000000000000600a86061a8153600a858161163857611637612826565b5b049450600085036115ef575b819350505050919050565b60008073ffffffffffffffffffffffffffffffffffffffff1661167183611148565b73ffffffffffffffffffffffffffffffffffffffff1614159050919050565b50505050565b50505050565b60006116bd8473ffffffffffffffffffffffffffffffffffffffff16611976565b15611816578373ffffffffffffffffffffffffffffffffffffffff1663150b7a026116e6610cf9565b8786866040518563ffffffff1660e01b815260040161170894939291906128aa565b6020604051808303816000875af192505050801561174457506040513d601f19601f82011682018060405250810190611741919061290b565b60015b6117c6573d8060008114611774576040519150601f19603f3d011682016040523d82523d6000602084013e611779565b606091505b5060008151036117be576040517f08c379a00000000000000000000000000000000000000000000000000000000081526004016117b59061272e565b60405180910390fd5b805181602001fd5b63150b7a0260e01b7bffffffffffffffffffffffffffffffffffffffffffffffffffffffff1916817bffffffffffffffffffffffffffffffffffffffffffffffffffffffff19161491505061181b565b600190505b949350505050565b600080600090507a184f03e93ff9f4daa797ed6e38ed64bf6a1f0100000000000000008310611881577a184f03e93ff9f4daa797ed6e38ed64bf6a1f010000000000000000838161187757611876612826565b5b0492506040810190505b6d04ee2d6d415b85acef810000000083106118be576d04ee2d6d415b85acef810000000083816118b4576118b3612826565b5b0492506020810190505b662386f26fc1000083106118ed57662386f26fc1000083816118e3576118e2612826565b5b0492506010810190505b6305f5e1008310611916576305f5e100838161190c5761190b612826565b5b0492506008810190505b612710831061193b57612710838161193157611930612826565b5b0492506004810190505b6064831061195e576064838161195457611953612826565b5b0492506002810190505b600a831061196d576001810190505b80915050919050565b6000808273ffffffffffffffffffffffffffffffffffffffff163b119050919050565b6000604051905090565b600080fd5b600080fd5b60007fffffffff0000000000000000000000000000000000000000000000000000000082169050919050565b6119e2816119ad565b81146119ed57600080fd5b50565b6000813590506119ff816119d9565b92915050565b600060208284031215611a1b57611a1a6119a3565b5b6000611a29848285016119f0565b91505092915050565b60008115159050919050565b611a4781611a32565b82525050565b6000602082019050611a626000830184611a3e565b92915050565b600073ffffffffffffffffffffffffffffffffffffffff82169050919050565b6000611a9382611a68565b9050919050565b611aa381611a88565b8114611aae57600080fd5b50565b600081359050611ac081611a9a565b92915050565b600060208284031215611adc57611adb6119a3565b5b6000611aea84828501611ab1565b91505092915050565b600081519050919050565b600082825260208201905092915050565b60005b83811015611b2d578082015181840152602081019050611b12565b60008484015250505050565b6000601f19601f8301169050919050565b6000611b5582611af3565b611b5f8185611afe565b9350611b6f818560208601611b0f565b611b7881611b39565b840191505092915050565b60006020820190508181036000830152611b9d8184611b4a565b905092915050565b6000819050919050565b611bb881611ba5565b8114611bc357600080fd5b50565b600081359050611bd581611baf565b92915050565b600060208284031215611bf157611bf06119a3565b5b6000611bff84828501611bc6565b91505092915050565b611c1181611a88565b82525050565b6000602082019050611c2c6000830184611c08565b92915050565b60008060408385031215611c4957611c486119a3565b5b6000611c5785828601611ab1565b9250506020611c6885828601611bc6565b9150509250929050565b600080600060608486031215611c8b57611c8a6119a3565b5b6000611c9986828701611ab1565b9350506020611caa86828701611ab1565b9250506040611cbb86828701611bc6565b9150509250925092565b611cce81611ba5565b82525050565b6000602082019050611ce96000830184611cc5565b92915050565b611cf881611a32565b8114611d0357600080fd5b50565b600081359050611d1581611cef565b92915050565b60008060408385031215611d3257611d316119a3565b5b6000611d4085828601611ab1565b9250506020611d5185828601611d06565b9150509250929050565b600080fd5b600080fd5b7f4e487b7100000000000000000000000000000000000000000000000000000000600052604160045260246000fd5b611d9d82611b39565b810181811067ffffffffffffffff82111715611dbc57611dbb611d65565b5b80604052505050565b6000611dcf611999565b9050611ddb8282611d94565b919050565b600067ffffffffffffffff821115611dfb57611dfa611d65565b5b611e0482611b39565b9050602081019050919050565b82818337600083830152505050565b6000611e33611e2e84611de0565b611dc5565b905082815260208101848484011115611e4f57611e4e611d60565b5b611e5a848285611e11565b509392505050565b600082601f830112611e7757611e76611d5b565b5b8135611e87848260208601611e20565b91505092915050565b60008060008060808587031215611eaa57611ea96119a3565b5b6000611eb887828801611ab1565b9450506020611ec987828801611ab1565b9350506040611eda87828801611bc6565b925050606085013567ffffffffffffffff811115611efb57611efa6119a8565b5b611f0787828801611e62565b91505092959194509250565b60008060408385031215611f2a57611f296119a3565b5b6000611f3885828601611ab1565b9250506020611f4985828601611ab1565b9150509250929050565b7f4e487b7100000000000000000000000000000000000000000000000000000000600052602260045260246000fd5b60006002820490506001821680611f9a57607f821691505b602082108103611fad57611fac611f53565b5b50919050565b7f4552433732313a20617070726f76616c20746f2063757272656e74206f776e6560008201527f7200000000000000000000000000000000000000000000000000000000000000602082015250565b600061200f602183611afe565b915061201a82611fb3565b604082019050919050565b6000602082019050818103600083015261203e81612002565b9050919050565b7f4552433732313a20617070726f76652063616c6c6572206973206e6f7420746f60008201527f6b656e206f776e6572206f7220617070726f76656420666f7220616c6c000000602082015250565b60006120a1603d83611afe565b91506120ac82612045565b604082019050919050565b600060208201905081810360008301526120d081612094565b9050919050565b7f4552433732313a2063616c6c6572206973206e6f7420746f6b656e206f776e6560008201527f72206f7220617070726f76656400000000000000000000000000000000000000602082015250565b6000612133602d83611afe565b915061213e826120d7565b604082019050919050565b6000602082019050818103600083015261216281612126565b9050919050565b7f4552433732313a20696e76616c696420746f6b656e2049440000000000000000600082015250565b600061219f601883611afe565b91506121aa82612169565b602082019050919050565b600060208201905081810360008301526121ce81612192565b9050919050565b7f4552433732313a2061646472657373207a65726f206973206e6f74206120766160008201527f6c6964206f776e65720000000000000000000000000000000000000000000000602082015250565b6000612231602983611afe565b915061223c826121d5565b604082019050919050565b6000602082019050818103600083015261226081612224565b9050919050565b7f4e6f7420612076616c6964206164647265737300000000000000000000000000600082015250565b600061229d601383611afe565b91506122a882612267565b602082019050919050565b600060208201905081810360008301526122cc81612290565b9050919050565b600067ffffffffffffffff8211156122ee576122ed611d65565b5b602082029050602081019050919050565b600080fd5b60008151905061231381611baf565b92915050565b600061232c612327846122d3565b611dc5565b9050808382526020820190506020840283018581111561234f5761234e6122ff565b5b835b8181101561237857806123648882612304565b845260208401935050602081019050612351565b5050509392505050565b600082601f83011261239757612396611d5b565b5b81516123a7848260208601612319565b91505092915050565b6000602082840312156123c6576123c56119a3565b5b600082015167ffffffffffffffff8111156123e4576123e36119a8565b5b6123f084828501612382565b91505092915050565b7f596f752068617665206e6f206e616b616d69676f73204e465473000000000000600082015250565b600061242f601a83611afe565b915061243a826123f9565b602082019050919050565b6000602082019050818103600083015261245e81612422565b9050919050565b7f4e487b7100000000000000000000000000000000000000000000000000000000600052601160045260246000fd5b600061ffff82169050919050565b60006124ad82612494565b915061ffff82036124c1576124c0612465565b5b600182019050919050565b600081905092915050565b60006124e282611af3565b6124ec81856124cc565b93506124fc818560208601611b0f565b80840191505092915050565b600061251482856124d7565b915061252082846124d7565b91508190509392505050565b7f4552433732313a207472616e736665722066726f6d20696e636f72726563742060008201527f6f776e6572000000000000000000000000000000000000000000000000000000602082015250565b6000612588602583611afe565b91506125938261252c565b604082019050919050565b600060208201905081810360008301526125b78161257b565b9050919050565b7f4552433732313a207472616e7366657220746f20746865207a65726f2061646460008201527f7265737300000000000000000000000000000000000000000000000000000000602082015250565b600061261a602483611afe565b9150612625826125be565b604082019050919050565b600060208201905081810360008301526126498161260d565b9050919050565b7f4552433732313a20617070726f766520746f2063616c6c657200000000000000600082015250565b6000612686601983611afe565b915061269182612650565b602082019050919050565b600060208201905081810360008301526126b581612679565b9050919050565b7f4552433732313a207472616e7366657220746f206e6f6e20455243373231526560008201527f63656976657220696d706c656d656e7465720000000000000000000000000000602082015250565b6000612718603283611afe565b9150612723826126bc565b604082019050919050565b600060208201905081810360008301526127478161270b565b9050919050565b7f4552433732313a206d696e7420746f20746865207a65726f2061646472657373600082015250565b6000612784602083611afe565b915061278f8261274e565b602082019050919050565b600060208201905081810360008301526127b381612777565b9050919050565b7f4552433732313a20746f6b656e20616c7265616479206d696e74656400000000600082015250565b60006127f0601c83611afe565b91506127fb826127ba565b602082019050919050565b6000602082019050818103600083015261281f816127e3565b9050919050565b7f4e487b7100000000000000000000000000000000000000000000000000000000600052601260045260246000fd5b600081519050919050565b600082825260208201905092915050565b600061287c82612855565b6128868185612860565b9350612896818560208601611b0f565b61289f81611b39565b840191505092915050565b60006080820190506128bf6000830187611c08565b6128cc6020830186611c08565b6128d96040830185611cc5565b81810360608301526128eb8184612871565b905095945050505050565b600081519050612905816119d9565b92915050565b600060208284031215612921576129206119a3565b5b600061292f848285016128f6565b9150509291505056fea26469706673582212207c65cef437a0850cda89cd9e0c40d33421f1441b99d310e2cbfc99226ca1f22464736f6c63430008120033",
  "linkReferences": {},
  "deployedLinkReferences": {}
}