{
  "_format": "hh-sol-artifact-1",
  "contractName": "NewPass",
  "sourceName": "contracts/Newpass.sol",
  "abi": [
    {
      "inputs": [],
      "stateMutability": "nonpayable",
      "type": "constructor"
    },
    {
      "anonymous": false,
      "inputs": [
        {
          "indexed": true,
          "internalType": "address",
          "name": "owner",
          "type": "address"
        },
        {
          "indexed": true,
          "internalType": "address",
          "name": "approved",
          "type": "address"
        },
        {
          "indexed": true,
          "internalType": "uint256",
          "name": "tokenId",
          "type": "uint256"
        }
      ],
      "name": "Approval",
      "type": "event"
    },
    {
      "anonymous": false,
      "inputs": [
        {
          "indexed": true,
          "internalType": "address",
          "name": "owner",
          "type": "address"
        },
        {
          "indexed": true,
          "internalType": "address",
          "name": "operator",
          "type": "address"
        },
        {
          "indexed": false,
          "internalType": "bool",
          "name": "approved",
          "type": "bool"
        }
      ],
      "name": "ApprovalForAll",
      "type": "event"
    },
    {
      "anonymous": false,
      "inputs": [
        {
          "indexed": true,
          "internalType": "address",
          "name": "from",
          "type": "address"
        },
        {
          "indexed": true,
          "internalType": "address",
          "name": "to",
          "type": "address"
        },
        {
          "indexed": true,
          "internalType": "uint256",
          "name": "tokenId",
          "type": "uint256"
        }
      ],
      "name": "Transfer",
      "type": "event"
    },
    {
      "inputs": [],
      "name": "NakamigosContractAddress",
      "outputs": [
        {
          "internalType": "address",
          "name": "",
          "type": "address"
        }
      ],
      "stateMutability": "view",
      "type": "function"
    },
    {
      "inputs": [
        {
          "internalType": "address",
          "name": "_to",
          "type": "address"
        }
      ],
      "name": "airDrop",
      "outputs": [
        {
          "internalType": "bool",
          "name": "",
          "type": "bool"
        }
      ],
      "stateMutability": "nonpayable",
      "type": "function"
    },
    {
      "inputs": [
        {
          "internalType": "address",
          "name": "to",
          "type": "address"
        },
        {
          "internalType": "uint256",
          "name": "tokenId",
          "type": "uint256"
        }
      ],
      "name": "approve",
      "outputs": [],
      "stateMutability": "nonpayable",
      "type": "function"
    },
    {
      "inputs": [
        {
          "internalType": "address",
          "name": "owner",
          "type": "address"
        }
      ],
      "name": "balanceOf",
      "outputs": [
        {
          "internalType": "uint256",
          "name": "",
          "type": "uint256"
        }
      ],
      "stateMutability": "view",
      "type": "function"
    },
    {
      "inputs": [
        {
          "internalType": "uint256",
          "name": "tokenId",
          "type": "uint256"
        }
      ],
      "name": "getApproved",
      "outputs": [
        {
          "internalType": "address",
          "name": "",
          "type": "address"
        }
      ],
      "stateMutability": "view",
      "type": "function"
    },
    {
      "inputs": [
        {
          "internalType": "address",
          "name": "_to",
          "type": "address"
        }
      ],
      "name": "holdsNakaNFTs",
      "outputs": [
        {
          "internalType": "bool",
          "name": "",
          "type": "bool"
        }
      ],
      "stateMutability": "view",
      "type": "function"
    },
    {
      "inputs": [
        {
          "internalType": "address",
          "name": "owner",
          "type": "address"
        },
        {
          "internalType": "address",
          "name": "operator",
          "type": "address"
        }
      ],
      "name": "isApprovedForAll",
      "outputs": [
        {
          "internalType": "bool",
          "name": "",
          "type": "bool"
        }
      ],
      "stateMutability": "view",
      "type": "function"
    },
    {
      "inputs": [],
      "name": "name",
      "outputs": [
        {
          "internalType": "string",
          "name": "",
          "type": "string"
        }
      ],
      "stateMutability": "view",
      "type": "function"
    },
    {
      "inputs": [],
      "name": "newToken",
      "outputs": [
        {
          "internalType": "bool",
          "name": "",
          "type": "bool"
        }
      ],
      "stateMutability": "nonpayable",
      "type": "function"
    },
    {
      "inputs": [],
      "name": "owner",
      "outputs": [
        {
          "internalType": "address",
          "name": "",
          "type": "address"
        }
      ],
      "stateMutability": "view",
      "type": "function"
    },
    {
      "inputs": [
        {
          "internalType": "uint256",
          "name": "tokenId",
          "type": "uint256"
        }
      ],
      "name": "ownerOf",
      "outputs": [
        {
          "internalType": "address",
          "name": "",
          "type": "address"
        }
      ],
      "stateMutability": "view",
      "type": "function"
    },
    {
      "inputs": [
        {
          "internalType": "address",
          "name": "_to",
          "type": "address"
        }
      ],
      "name": "passIssedToAdress",
      "outputs": [
        {
          "internalType": "bool",
          "name": "",
          "type": "bool"
        }
      ],
      "stateMutability": "view",
      "type": "function"
    },
    {
      "inputs": [
        {
          "internalType": "address",
          "name": "",
          "type": "address"
        }
      ],
      "name": "passIssued",
      "outputs": [
        {
          "internalType": "bool",
          "name": "",
          "type": "bool"
        }
      ],
      "stateMutability": "view",
      "type": "function"
    },
    {
      "inputs": [
        {
          "internalType": "address",
          "name": "from",
          "type": "address"
        },
        {
          "internalType": "address",
          "name": "to",
          "type": "address"
        },
        {
          "internalType": "uint256",
          "name": "tokenId",
          "type": "uint256"
        }
      ],
      "name": "safeTransferFrom",
      "outputs": [],
      "stateMutability": "nonpayable",
      "type": "function"
    },
    {
      "inputs": [
        {
          "internalType": "address",
          "name": "from",
          "type": "address"
        },
        {
          "internalType": "address",
          "name": "to",
          "type": "address"
        },
        {
          "internalType": "uint256",
          "name": "tokenId",
          "type": "uint256"
        },
        {
          "internalType": "bytes",
          "name": "data",
          "type": "bytes"
        }
      ],
      "name": "safeTransferFrom",
      "outputs": [],
      "stateMutability": "nonpayable",
      "type": "function"
    },
    {
      "inputs": [
        {
          "internalType": "address",
          "name": "operator",
          "type": "address"
        },
        {
          "internalType": "bool",
          "name": "approved",
          "type": "bool"
        }
      ],
      "name": "setApprovalForAll",
      "outputs": [],
      "stateMutability": "nonpayable",
      "type": "function"
    },
    {
      "inputs": [
        {
          "internalType": "bytes4",
          "name": "interfaceId",
          "type": "bytes4"
        }
      ],
      "name": "supportsInterface",
      "outputs": [
        {
          "internalType": "bool",
          "name": "",
          "type": "bool"
        }
      ],
      "stateMutability": "view",
      "type": "function"
    },
    {
      "inputs": [],
      "name": "symbol",
      "outputs": [
        {
          "internalType": "string",
          "name": "",
          "type": "string"
        }
      ],
      "stateMutability": "view",
      "type": "function"
    },
    {
      "inputs": [
        {
          "internalType": "uint256",
          "name": "tokenId",
          "type": "uint256"
        }
      ],
      "name": "tokenURI",
      "outputs": [
        {
          "internalType": "string",
          "name": "",
          "type": "string"
        }
      ],
      "stateMutability": "view",
      "type": "function"
    },
    {
      "inputs": [
        {
          "internalType": "address",
          "name": "from",
          "type": "address"
        },
        {
          "internalType": "address",
          "name": "to",
          "type": "address"
        },
        {
          "internalType": "uint256",
          "name": "tokenId",
          "type": "uint256"
        }
      ],
      "name": "transferFrom",
      "outputs": [],
      "stateMutability": "nonpayable",
      "type": "function"
    }
  ],
  "bytecode": "0x60806040526000600660006101000a81548161ffff021916908361ffff16021790555073d774557b647330c91bf44cfeab205095f7e6c367600760006101000a81548173ffffffffffffffffffffffffffffffffffffffff021916908373ffffffffffffffffffffffffffffffffffffffff1602179055503480156200008457600080fd5b506040518060400160405280600d81526020017f4578616d706c65546f6b656e73000000000000000000000000000000000000008152506040518060400160405280600381526020017f45587400000000000000000000000000000000000000000000000000000000008152508160009081620001029190620003d8565b508060019081620001149190620003d8565b50505033600660026101000a81548173ffffffffffffffffffffffffffffffffffffffff021916908373ffffffffffffffffffffffffffffffffffffffff160217905550620004bf565b600081519050919050565b7f4e487b7100000000000000000000000000000000000000000000000000000000600052604160045260246000fd5b7f4e487b7100000000000000000000000000000000000000000000000000000000600052602260045260246000fd5b60006002820490506001821680620001e057607f821691505b602082108103620001f657620001f562000198565b5b50919050565b60008190508160005260206000209050919050565b60006020601f8301049050919050565b600082821b905092915050565b600060088302620002607fffffffffffffffffffffffffffffffffffffffffffffffffffffffffffffffff8262000221565b6200026c868362000221565b95508019841693508086168417925050509392505050565b6000819050919050565b6000819050919050565b6000620002b9620002b3620002ad8462000284565b6200028e565b62000284565b9050919050565b6000819050919050565b620002d58362000298565b620002ed620002e482620002c0565b8484546200022e565b825550505050565b600090565b62000304620002f5565b62000311818484620002ca565b505050565b5b8181101562000339576200032d600082620002fa565b60018101905062000317565b5050565b601f82111562000388576200035281620001fc565b6200035d8462000211565b810160208510156200036d578190505b620003856200037c8562000211565b83018262000316565b50505b505050565b600082821c905092915050565b6000620003ad600019846008026200038d565b1980831691505092915050565b6000620003c883836200039a565b9150826002028217905092915050565b620003e3826200015e565b67ffffffffffffffff811115620003ff57620003fe62000169565b5b6200040b8254620001c7565b620004188282856200033d565b600060209050601f8311600181146200045057600084156200043b578287015190505b620004478582620003ba565b865550620004b7565b601f1984166200046086620001fc565b60005b828110156200048a5784890151825560018201915060208501945060208101905062000463565b86831015620004aa5784890151620004a6601f8916826200039a565b8355505b6001600288020188555050505b505050505050565b612ea980620004cf6000396000f3fe608060405234801561001057600080fd5b506004361061012c5760003560e01c806370a08231116100ad578063c42bd05a11610071578063c42bd05a14610355578063c87b56dd14610373578063cd18d5a4146103a3578063e985e9c5146103d3578063f65b3e8d146104035761012c565b806370a08231146102b15780638da5cb5b146102e157806395d89b41146102ff578063a22cb4651461031d578063b88d4fde146103395761012c565b806319165611116100f457806319165611146101fb5780631a21a75a1461021957806323b872dd1461024957806342842e0e146102655780636352211e146102815761012c565b806301ffc9a71461013157806306e882af1461016157806306fdde0314610191578063081812fc146101af578063095ea7b3146101df575b600080fd5b61014b60048036038101906101469190611e68565b610433565b6040516101589190611eb0565b60405180910390f35b61017b60048036038101906101769190611f29565b610515565b6040516101889190611eb0565b60405180910390f35b610199610535565b6040516101a69190611fe6565b60405180910390f35b6101c960048036038101906101c4919061203e565b6105c7565b6040516101d6919061207a565b60405180910390f35b6101f960048036038101906101f49190612095565b61060d565b005b610203610724565b604051610210919061207a565b60405180910390f35b610233600480360381019061022e9190611f29565b61074a565b6040516102409190611eb0565b60405180910390f35b610263600480360381019061025e91906120d5565b6107a0565b005b61027f600480360381019061027a91906120d5565b610800565b005b61029b6004803603810190610296919061203e565b610820565b6040516102a8919061207a565b60405180910390f35b6102cb60048036038101906102c69190611f29565b6108a6565b6040516102d89190612137565b60405180910390f35b6102e961095d565b6040516102f6919061207a565b60405180910390f35b610307610983565b6040516103149190611fe6565b60405180910390f35b6103376004803603810190610332919061217e565b610a15565b005b610353600480360381019061034e91906122f3565b610a2b565b005b61035d610a8d565b60405161036a9190611eb0565b60405180910390f35b61038d6004803603810190610388919061203e565b610c9b565b60405161039a9190611fe6565b60405180910390f35b6103bd60048036038101906103b89190611f29565b610d03565b6040516103ca9190611eb0565b60405180910390f35b6103ed60048036038101906103e89190612376565b610f4f565b6040516103fa9190611eb0565b60405180910390f35b61041d60048036038101906104189190611f29565b610fe3565b60405161042a9190611eb0565b60405180910390f35b60007f80ac58cd000000000000000000000000000000000000000000000000000000007bffffffffffffffffffffffffffffffffffffffffffffffffffffffff1916827bffffffffffffffffffffffffffffffffffffffffffffffffffffffff191614806104fe57507f5b5e139f000000000000000000000000000000000000000000000000000000007bffffffffffffffffffffffffffffffffffffffffffffffffffffffff1916827bffffffffffffffffffffffffffffffffffffffffffffffffffffffff1916145b8061050e575061050d826110a7565b5b9050919050565b60086020528060005260406000206000915054906101000a900460ff1681565b606060008054610544906123e5565b80601f0160208091040260200160405190810160405280929190818152602001828054610570906123e5565b80156105bd5780601f10610592576101008083540402835291602001916105bd565b820191906000526020600020905b8154815290600101906020018083116105a057829003601f168201915b5050505050905090565b60006105d282611111565b6004600083815260200190815260200160002060009054906101000a900473ffffffffffffffffffffffffffffffffffffffff169050919050565b600061061882610820565b90508073ffffffffffffffffffffffffffffffffffffffff168373ffffffffffffffffffffffffffffffffffffffff1603610688576040517f08c379a000000000000000000000000000000000000000000000000000000000815260040161067f90612488565b60405180910390fd5b8073ffffffffffffffffffffffffffffffffffffffff166106a761115c565b73ffffffffffffffffffffffffffffffffffffffff1614806106d657506106d5816106d061115c565b610f4f565b5b610715576040517f08c379a000000000000000000000000000000000000000000000000000000000815260040161070c9061251a565b60405180910390fd5b61071f8383611164565b505050565b600760009054906101000a900473ffffffffffffffffffffffffffffffffffffffff1681565b6000600860008373ffffffffffffffffffffffffffffffffffffffff1673ffffffffffffffffffffffffffffffffffffffff16815260200190815260200160002060009054906101000a900460ff169050919050565b6107b16107ab61115c565b8261121d565b6107f0576040517f08c379a00000000000000000000000000000000000000000000000000000000081526004016107e7906125ac565b60405180910390fd5b6107fb8383836112b2565b505050565b61081b83838360405180602001604052806000815250610a2b565b505050565b60008061082c836115ab565b9050600073ffffffffffffffffffffffffffffffffffffffff168173ffffffffffffffffffffffffffffffffffffffff160361089d576040517f08c379a000000000000000000000000000000000000000000000000000000000815260040161089490612618565b60405180910390fd5b80915050919050565b60008073ffffffffffffffffffffffffffffffffffffffff168273ffffffffffffffffffffffffffffffffffffffff1603610916576040517f08c379a000000000000000000000000000000000000000000000000000000000815260040161090d906126aa565b60405180910390fd5b600360008373ffffffffffffffffffffffffffffffffffffffff1673ffffffffffffffffffffffffffffffffffffffff168152602001908152602001600020549050919050565b600660029054906101000a900473ffffffffffffffffffffffffffffffffffffffff1681565b606060018054610992906123e5565b80601f01602080910402602001604051908101604052809291908181526020018280546109be906123e5565b8015610a0b5780601f106109e057610100808354040283529160200191610a0b565b820191906000526020600020905b8154815290600101906020018083116109ee57829003601f168201915b5050505050905090565b610a27610a2061115c565b83836115e8565b5050565b610a3c610a3661115c565b8361121d565b610a7b576040517f08c379a0000000000000000000000000000000000000000000000000000000008152600401610a72906125ac565b60405180910390fd5b610a8784848484611754565b50505050565b60008073ffffffffffffffffffffffffffffffffffffffff163373ffffffffffffffffffffffffffffffffffffffff1603610afd576040517f08c379a0000000000000000000000000000000000000000000000000000000008152600401610af490612716565b60405180910390fd5b60001515600860003373ffffffffffffffffffffffffffffffffffffffff1673ffffffffffffffffffffffffffffffffffffffff16815260200190815260200160002060009054906101000a900460ff16151514610b90576040517f08c379a0000000000000000000000000000000000000000000000000000000008152600401610b8790612782565b60405180910390fd5b6000610b9b33610fe3565b90506001151581151514610be4576040517f08c379a0000000000000000000000000000000000000000000000000000000008152600401610bdb906127ee565b60405180910390fd5b60006006600081819054906101000a900461ffff1680929190610c069061284b565b91906101000a81548161ffff021916908361ffff16021790555061ffff169050610c3033826117b0565b610c3981610c9b565b506001600860003373ffffffffffffffffffffffffffffffffffffffff1673ffffffffffffffffffffffffffffffffffffffff16815260200190815260200160002060006101000a81548160ff02191690831515021790555060019250505090565b6060610ca682611111565b6000610cb06119cd565b90506000815111610cd05760405180602001604052806000815250610cfb565b80610cda846119e4565b604051602001610ceb9291906128b1565b6040516020818303038152906040525b915050919050565b6000600660029054906101000a900473ffffffffffffffffffffffffffffffffffffffff1673ffffffffffffffffffffffffffffffffffffffff163373ffffffffffffffffffffffffffffffffffffffff1614610d95576040517f08c379a0000000000000000000000000000000000000000000000000000000008152600401610d8c90612921565b60405180910390fd5b600073ffffffffffffffffffffffffffffffffffffffff163373ffffffffffffffffffffffffffffffffffffffff1603610e04576040517f08c379a0000000000000000000000000000000000000000000000000000000008152600401610dfb90612716565b60405180910390fd5b60001515600860008473ffffffffffffffffffffffffffffffffffffffff1673ffffffffffffffffffffffffffffffffffffffff16815260200190815260200160002060009054906101000a900460ff16151514610e97576040517f08c379a0000000000000000000000000000000000000000000000000000000008152600401610e8e90612782565b60405180910390fd5b60006006600081819054906101000a900461ffff1680929190610eb99061284b565b91906101000a81548161ffff021916908361ffff16021790555061ffff169050610ee333826117b0565b610eec81610c9b565b506001600860003373ffffffffffffffffffffffffffffffffffffffff1673ffffffffffffffffffffffffffffffffffffffff16815260200190815260200160002060006101000a81548160ff0219169083151502179055506001915050919050565b6000600560008473ffffffffffffffffffffffffffffffffffffffff1673ffffffffffffffffffffffffffffffffffffffff16815260200190815260200160002060008373ffffffffffffffffffffffffffffffffffffffff1673ffffffffffffffffffffffffffffffffffffffff16815260200190815260200160002060009054906101000a900460ff16905092915050565b600080600760009054906101000a900473ffffffffffffffffffffffffffffffffffffffff1673ffffffffffffffffffffffffffffffffffffffff16638462151c846040518263ffffffff1660e01b8152600401611041919061207a565b600060405180830381865afa15801561105e573d6000803e3d6000fd5b505050506040513d6000823e3d601f19601f820116820180604052508101906110879190612a1e565b9050600181511061109c5760019150506110a2565b60009150505b919050565b60007f01ffc9a7000000000000000000000000000000000000000000000000000000007bffffffffffffffffffffffffffffffffffffffffffffffffffffffff1916827bffffffffffffffffffffffffffffffffffffffffffffffffffffffff1916149050919050565b61111a81611ab2565b611159576040517f08c379a000000000000000000000000000000000000000000000000000000000815260040161115090612618565b60405180910390fd5b50565b600033905090565b816004600083815260200190815260200160002060006101000a81548173ffffffffffffffffffffffffffffffffffffffff021916908373ffffffffffffffffffffffffffffffffffffffff160217905550808273ffffffffffffffffffffffffffffffffffffffff166111d783610820565b73ffffffffffffffffffffffffffffffffffffffff167f8c5be1e5ebec7d5bd14f71427d1e84f3dd0314c0f7b2291e5b200ac8c7c3b92560405160405180910390a45050565b60008061122983610820565b90508073ffffffffffffffffffffffffffffffffffffffff168473ffffffffffffffffffffffffffffffffffffffff16148061126b575061126a8185610f4f565b5b806112a957508373ffffffffffffffffffffffffffffffffffffffff16611291846105c7565b73ffffffffffffffffffffffffffffffffffffffff16145b91505092915050565b8273ffffffffffffffffffffffffffffffffffffffff166112d282610820565b73ffffffffffffffffffffffffffffffffffffffff1614611328576040517f08c379a000000000000000000000000000000000000000000000000000000000815260040161131f90612ad9565b60405180910390fd5b600073ffffffffffffffffffffffffffffffffffffffff168273ffffffffffffffffffffffffffffffffffffffff1603611397576040517f08c379a000000000000000000000000000000000000000000000000000000000815260040161138e90612b6b565b60405180910390fd5b6113a48383836001611af3565b8273ffffffffffffffffffffffffffffffffffffffff166113c482610820565b73ffffffffffffffffffffffffffffffffffffffff161461141a576040517f08c379a000000000000000000000000000000000000000000000000000000000815260040161141190612ad9565b60405180910390fd5b6004600082815260200190815260200160002060006101000a81549073ffffffffffffffffffffffffffffffffffffffff02191690556001600360008573ffffffffffffffffffffffffffffffffffffffff1673ffffffffffffffffffffffffffffffffffffffff168152602001908152602001600020600082825403925050819055506001600360008473ffffffffffffffffffffffffffffffffffffffff1673ffffffffffffffffffffffffffffffffffffffff16815260200190815260200160002060008282540192505081905550816002600083815260200190815260200160002060006101000a81548173ffffffffffffffffffffffffffffffffffffffff021916908373ffffffffffffffffffffffffffffffffffffffff160217905550808273ffffffffffffffffffffffffffffffffffffffff168473ffffffffffffffffffffffffffffffffffffffff167fddf252ad1be2c89b69c2b068fc378daa952ba7f163c4a11628f55a4df523b3ef60405160405180910390a46115a68383836001611af9565b505050565b60006002600083815260200190815260200160002060009054906101000a900473ffffffffffffffffffffffffffffffffffffffff169050919050565b8173ffffffffffffffffffffffffffffffffffffffff168373ffffffffffffffffffffffffffffffffffffffff1603611656576040517f08c379a000000000000000000000000000000000000000000000000000000000815260040161164d90612bd7565b60405180910390fd5b80600560008573ffffffffffffffffffffffffffffffffffffffff1673ffffffffffffffffffffffffffffffffffffffff16815260200190815260200160002060008473ffffffffffffffffffffffffffffffffffffffff1673ffffffffffffffffffffffffffffffffffffffff16815260200190815260200160002060006101000a81548160ff0219169083151502179055508173ffffffffffffffffffffffffffffffffffffffff168373ffffffffffffffffffffffffffffffffffffffff167f17307eab39ab6107e8899845ad3d59bd9653f200f220920489ca2b5937696c31836040516117479190611eb0565b60405180910390a3505050565b61175f8484846112b2565b61176b84848484611aff565b6117aa576040517f08c379a00000000000000000000000000000000000000000000000000000000081526004016117a190612c69565b60405180910390fd5b50505050565b600073ffffffffffffffffffffffffffffffffffffffff168273ffffffffffffffffffffffffffffffffffffffff160361181f576040517f08c379a000000000000000000000000000000000000000000000000000000000815260040161181690612cd5565b60405180910390fd5b61182881611ab2565b15611868576040517f08c379a000000000000000000000000000000000000000000000000000000000815260040161185f90612d41565b60405180910390fd5b611876600083836001611af3565b61187f81611ab2565b156118bf576040517f08c379a00000000000000000000000000000000000000000000000000000000081526004016118b690612d41565b60405180910390fd5b6001600360008473ffffffffffffffffffffffffffffffffffffffff1673ffffffffffffffffffffffffffffffffffffffff16815260200190815260200160002060008282540192505081905550816002600083815260200190815260200160002060006101000a81548173ffffffffffffffffffffffffffffffffffffffff021916908373ffffffffffffffffffffffffffffffffffffffff160217905550808273ffffffffffffffffffffffffffffffffffffffff16600073ffffffffffffffffffffffffffffffffffffffff167fddf252ad1be2c89b69c2b068fc378daa952ba7f163c4a11628f55a4df523b3ef60405160405180910390a46119c9600083836001611af9565b5050565b606060405180602001604052806000815250905090565b6060600060016119f384611c86565b01905060008167ffffffffffffffff811115611a1257611a116121c8565b5b6040519080825280601f01601f191660200182016040528015611a445781602001600182028036833780820191505090505b509050600082602001820190505b600115611aa7578080600190039150507f3031323334353637383961626364656600000000000000000000000000000000600a86061a8153600a8581611a9b57611a9a612d61565b5b04945060008503611a52575b819350505050919050565b60008073ffffffffffffffffffffffffffffffffffffffff16611ad4836115ab565b73ffffffffffffffffffffffffffffffffffffffff1614159050919050565b50505050565b50505050565b6000611b208473ffffffffffffffffffffffffffffffffffffffff16611dd9565b15611c79578373ffffffffffffffffffffffffffffffffffffffff1663150b7a02611b4961115c565b8786866040518563ffffffff1660e01b8152600401611b6b9493929190612de5565b6020604051808303816000875af1925050508015611ba757506040513d601f19601f82011682018060405250810190611ba49190612e46565b60015b611c29573d8060008114611bd7576040519150601f19603f3d011682016040523d82523d6000602084013e611bdc565b606091505b506000815103611c21576040517f08c379a0000000000000000000000000000000000000000000000000000000008152600401611c1890612c69565b60405180910390fd5b805181602001fd5b63150b7a0260e01b7bffffffffffffffffffffffffffffffffffffffffffffffffffffffff1916817bffffffffffffffffffffffffffffffffffffffffffffffffffffffff191614915050611c7e565b600190505b949350505050565b600080600090507a184f03e93ff9f4daa797ed6e38ed64bf6a1f0100000000000000008310611ce4577a184f03e93ff9f4daa797ed6e38ed64bf6a1f0100000000000000008381611cda57611cd9612d61565b5b0492506040810190505b6d04ee2d6d415b85acef81000000008310611d21576d04ee2d6d415b85acef81000000008381611d1757611d16612d61565b5b0492506020810190505b662386f26fc100008310611d5057662386f26fc100008381611d4657611d45612d61565b5b0492506010810190505b6305f5e1008310611d79576305f5e1008381611d6f57611d6e612d61565b5b0492506008810190505b6127108310611d9e576127108381611d9457611d93612d61565b5b0492506004810190505b60648310611dc15760648381611db757611db6612d61565b5b0492506002810190505b600a8310611dd0576001810190505b80915050919050565b6000808273ffffffffffffffffffffffffffffffffffffffff163b119050919050565b6000604051905090565b600080fd5b600080fd5b60007fffffffff0000000000000000000000000000000000000000000000000000000082169050919050565b611e4581611e10565b8114611e5057600080fd5b50565b600081359050611e6281611e3c565b92915050565b600060208284031215611e7e57611e7d611e06565b5b6000611e8c84828501611e53565b91505092915050565b60008115159050919050565b611eaa81611e95565b82525050565b6000602082019050611ec56000830184611ea1565b92915050565b600073ffffffffffffffffffffffffffffffffffffffff82169050919050565b6000611ef682611ecb565b9050919050565b611f0681611eeb565b8114611f1157600080fd5b50565b600081359050611f2381611efd565b92915050565b600060208284031215611f3f57611f3e611e06565b5b6000611f4d84828501611f14565b91505092915050565b600081519050919050565b600082825260208201905092915050565b60005b83811015611f90578082015181840152602081019050611f75565b60008484015250505050565b6000601f19601f8301169050919050565b6000611fb882611f56565b611fc28185611f61565b9350611fd2818560208601611f72565b611fdb81611f9c565b840191505092915050565b600060208201905081810360008301526120008184611fad565b905092915050565b6000819050919050565b61201b81612008565b811461202657600080fd5b50565b60008135905061203881612012565b92915050565b60006020828403121561205457612053611e06565b5b600061206284828501612029565b91505092915050565b61207481611eeb565b82525050565b600060208201905061208f600083018461206b565b92915050565b600080604083850312156120ac576120ab611e06565b5b60006120ba85828601611f14565b92505060206120cb85828601612029565b9150509250929050565b6000806000606084860312156120ee576120ed611e06565b5b60006120fc86828701611f14565b935050602061210d86828701611f14565b925050604061211e86828701612029565b9150509250925092565b61213181612008565b82525050565b600060208201905061214c6000830184612128565b92915050565b61215b81611e95565b811461216657600080fd5b50565b60008135905061217881612152565b92915050565b6000806040838503121561219557612194611e06565b5b60006121a385828601611f14565b92505060206121b485828601612169565b9150509250929050565b600080fd5b600080fd5b7f4e487b7100000000000000000000000000000000000000000000000000000000600052604160045260246000fd5b61220082611f9c565b810181811067ffffffffffffffff8211171561221f5761221e6121c8565b5b80604052505050565b6000612232611dfc565b905061223e82826121f7565b919050565b600067ffffffffffffffff82111561225e5761225d6121c8565b5b61226782611f9c565b9050602081019050919050565b82818337600083830152505050565b600061229661229184612243565b612228565b9050828152602081018484840111156122b2576122b16121c3565b5b6122bd848285612274565b509392505050565b600082601f8301126122da576122d96121be565b5b81356122ea848260208601612283565b91505092915050565b6000806000806080858703121561230d5761230c611e06565b5b600061231b87828801611f14565b945050602061232c87828801611f14565b935050604061233d87828801612029565b925050606085013567ffffffffffffffff81111561235e5761235d611e0b565b5b61236a878288016122c5565b91505092959194509250565b6000806040838503121561238d5761238c611e06565b5b600061239b85828601611f14565b92505060206123ac85828601611f14565b9150509250929050565b7f4e487b7100000000000000000000000000000000000000000000000000000000600052602260045260246000fd5b600060028204905060018216806123fd57607f821691505b6020821081036124105761240f6123b6565b5b50919050565b7f4552433732313a20617070726f76616c20746f2063757272656e74206f776e6560008201527f7200000000000000000000000000000000000000000000000000000000000000602082015250565b6000612472602183611f61565b915061247d82612416565b604082019050919050565b600060208201905081810360008301526124a181612465565b9050919050565b7f4552433732313a20617070726f76652063616c6c6572206973206e6f7420746f60008201527f6b656e206f776e6572206f7220617070726f76656420666f7220616c6c000000602082015250565b6000612504603d83611f61565b915061250f826124a8565b604082019050919050565b60006020820190508181036000830152612533816124f7565b9050919050565b7f4552433732313a2063616c6c6572206973206e6f7420746f6b656e206f776e6560008201527f72206f7220617070726f76656400000000000000000000000000000000000000602082015250565b6000612596602d83611f61565b91506125a18261253a565b604082019050919050565b600060208201905081810360008301526125c581612589565b9050919050565b7f4552433732313a20696e76616c696420746f6b656e2049440000000000000000600082015250565b6000612602601883611f61565b915061260d826125cc565b602082019050919050565b60006020820190508181036000830152612631816125f5565b9050919050565b7f4552433732313a2061646472657373207a65726f206973206e6f74206120766160008201527f6c6964206f776e65720000000000000000000000000000000000000000000000602082015250565b6000612694602983611f61565b915061269f82612638565b604082019050919050565b600060208201905081810360008301526126c381612687565b9050919050565b7f4e6f7420612076616c6964206164647265737300000000000000000000000000600082015250565b6000612700601383611f61565b915061270b826126ca565b602082019050919050565b6000602082019050818103600083015261272f816126f3565b9050919050565b7f7061737320616c72656164792069737365640000000000000000000000000000600082015250565b600061276c601283611f61565b915061277782612736565b602082019050919050565b6000602082019050818103600083015261279b8161275f565b9050919050565b7f596f752068617665206e6f206e616b616d69676f73204e465473000000000000600082015250565b60006127d8601a83611f61565b91506127e3826127a2565b602082019050919050565b60006020820190508181036000830152612807816127cb565b9050919050565b7f4e487b7100000000000000000000000000000000000000000000000000000000600052601160045260246000fd5b600061ffff82169050919050565b60006128568261283d565b915061ffff820361286a5761286961280e565b5b600182019050919050565b600081905092915050565b600061288b82611f56565b6128958185612875565b93506128a5818560208601611f72565b80840191505092915050565b60006128bd8285612880565b91506128c98284612880565b91508190509392505050565b7f796f75277265206e6f7420746865206f776e6572000000000000000000000000600082015250565b600061290b601483611f61565b9150612916826128d5565b602082019050919050565b6000602082019050818103600083015261293a816128fe565b9050919050565b600067ffffffffffffffff82111561295c5761295b6121c8565b5b602082029050602081019050919050565b600080fd5b60008151905061298181612012565b92915050565b600061299a61299584612941565b612228565b905080838252602082019050602084028301858111156129bd576129bc61296d565b5b835b818110156129e657806129d28882612972565b8452602084019350506020810190506129bf565b5050509392505050565b600082601f830112612a0557612a046121be565b5b8151612a15848260208601612987565b91505092915050565b600060208284031215612a3457612a33611e06565b5b600082015167ffffffffffffffff811115612a5257612a51611e0b565b5b612a5e848285016129f0565b91505092915050565b7f4552433732313a207472616e736665722066726f6d20696e636f72726563742060008201527f6f776e6572000000000000000000000000000000000000000000000000000000602082015250565b6000612ac3602583611f61565b9150612ace82612a67565b604082019050919050565b60006020820190508181036000830152612af281612ab6565b9050919050565b7f4552433732313a207472616e7366657220746f20746865207a65726f2061646460008201527f7265737300000000000000000000000000000000000000000000000000000000602082015250565b6000612b55602483611f61565b9150612b6082612af9565b604082019050919050565b60006020820190508181036000830152612b8481612b48565b9050919050565b7f4552433732313a20617070726f766520746f2063616c6c657200000000000000600082015250565b6000612bc1601983611f61565b9150612bcc82612b8b565b602082019050919050565b60006020820190508181036000830152612bf081612bb4565b9050919050565b7f4552433732313a207472616e7366657220746f206e6f6e20455243373231526560008201527f63656976657220696d706c656d656e7465720000000000000000000000000000602082015250565b6000612c53603283611f61565b9150612c5e82612bf7565b604082019050919050565b60006020820190508181036000830152612c8281612c46565b9050919050565b7f4552433732313a206d696e7420746f20746865207a65726f2061646472657373600082015250565b6000612cbf602083611f61565b9150612cca82612c89565b602082019050919050565b60006020820190508181036000830152612cee81612cb2565b9050919050565b7f4552433732313a20746f6b656e20616c7265616479206d696e74656400000000600082015250565b6000612d2b601c83611f61565b9150612d3682612cf5565b602082019050919050565b60006020820190508181036000830152612d5a81612d1e565b9050919050565b7f4e487b7100000000000000000000000000000000000000000000000000000000600052601260045260246000fd5b600081519050919050565b600082825260208201905092915050565b6000612db782612d90565b612dc18185612d9b565b9350612dd1818560208601611f72565b612dda81611f9c565b840191505092915050565b6000608082019050612dfa600083018761206b565b612e07602083018661206b565b612e146040830185612128565b8181036060830152612e268184612dac565b905095945050505050565b600081519050612e4081611e3c565b92915050565b600060208284031215612e5c57612e5b611e06565b5b6000612e6a84828501612e31565b9150509291505056fea2646970667358221220a0caa0f238f044e8e136cca75952937b34bc794df5aad9f0b9400b9693c576ed64736f6c63430008120033",
  "linkReferences": {},
  "deployedLinkReferences": {}
}